:02000002B0004C
:1040000000400B00D0DC0B00000006000C00050295
:0840100004011F0C0000000078
:0440180014C30B00C2
:1040200009480A49884208B505D0094A824202D0A7
:10403000121A06F0C7F90748074A0021121A06F0BB
:10404000E9F9014808BD00BF18DC0320BCD60B000D
:1040500004E2032008E20320F4E7032070B5074ED2
:10406000074C04F01DF9A41BA4080025A54200D1AB
:1040700070BD56F8043B98470135F7E784D60B002E
:10408000A8D60B0000F0D8B808B500F06FFDBDE869
:10409000084004F0BDB803F039BB03F037BB03F0B0
:1040A0003DBB000008B5034A00210C2003F062FA72
:1040B000FEE700BFA5710B000078B0FA80F0400960
:1040C00070470123037070477047704708B5044B71
:1040D00001221A7003F06EF8024B186008BD00BF91
:1040E000C0E50320C4E5032010B50446006808B10C
:1040F00003F014FB204610BD436913B183690C30F3
:104100001847704713B500210446084603F082F8AB
:104110000023204601A9019303F094F8019C0CB1FF
:10412000012323710021012003F074F82CB12368CE
:1041300020469B6898470023237102B010BD000001
:1041400038B584690A4B036005467CB16368013B5E
:1041500063605BB9236820469B689847A368013B6E
:10416000A3601BB923682046DB689847284638BD02
:1041700064D00B00012A02D1016000207047022A9E
:1041800004BF0B680360F8E7036818470EB403B573
:1041900003AB002153F8042B019303F0DCFE02B0C3
:1041A0005DF804EB03B0704710B58368044613B1A3
:1041B000032201469847204610BD000037B5134B37
:1041C000036004468068C8B100256FF00043CDE964
:1041D000003502212B462A4603F03CF8A068294608
:1041E00003F050F8237903F0FF0513B103F00AF848
:1041F000F8E7A068294603F01DF8A56004F10C005B
:10420000FFF7D2FF204603B030BD00BFECC60B0065
:1042100010B50446FFF7D2FF20461C2104F049FFE9
:10422000204610BD10B50446FFF78AFF20461C212A
:1042300004F03FFF204610BD13B52F480023194658
:104240001A46406803F0DAF904F048F94FF41651C1
:1042500004F038F929492A4801F0B6FF29492848CD
:1042600001F0B2FF2849264801F0AEFF01210820E5
:1042700004F066FE0121042004F062FE0121052005
:1042800004F05EFE0021112004F05AFE00211320EC
:1042900004F056FEB9EE0C0A03F0AAFE03F016FA7B
:1042A00010B1002003F01AFA1848194C01F01FFE53
:1042B0003C220221174802F07BFC164802F0ACFBBE
:1042C000144802F005FCA06830B10023CDE90033AA
:1042D0001A46022102F0BEFFA06840B100236FF031
:1042E0000042CDE9002319461A4602F0B3FF0A4BFB
:1042F00000221A7002B010BDC8E7032020E5032099
:1043000010E40320E4E4032088E5032094E3032081
:1043100064E50320DCE30320C0E5032008B540F298
:104320005D2140F2492004F00EFA05F033F9044B08
:10433000002205F0C3FA05F08FFC024B186008BD9F
:10434000000059401CE50320F8B58A00073222F02E
:10435000070200AFADEB020D4B1E6C460022D5B23A
:104360008D4202F1010204DA50F8256044F825601C
:10437000F5E70020984212DA22460025A3EB000E52
:1043800075450ADA1668D2F804C0664505F10105DC
:1043900001DDC2E900C60432F2E70130EAE7CA07EC
:1043A00006D503EBD3735B1054F82300BD46F8BD6C
:1043B00001EBD171491004EB810354F8210053F84B
:1043C000043C184400EBD0704010EFE70000000000
:1043D000F8B52DED028B6A4D6A4C2B78BFF35B8FDD
:1043E00013F0010F09D12846FFF766FE28B102F04D
:1043F000E1FE20602846FFF764FE02F0DBFE236842
:10440000C01A282812D902F0D5FE20605E4C132075
:10441000256804F0D2FD5D4B43F8250023681D2B71
:1044200003F101020ABF002322602360584D594C5A
:104430002B78BFF35B8F13F0010F09D12846FFF7EC
:104440003BFE28B102F0B6FE20602846FFF739FE99
:1044500002F0B0FE2368C01AB0F5487F7AD902F0A6
:10446000A9FE4D4920600023484C4C480B601F2298
:10447000013A05D054F8043B40F8043B0123F7E728
:104480000BB11E230B601E214448FFF75DFF07EEB2
:10449000900AF8EEE77AB1EE047A67EE877A9FED3C
:1044A000407A404B87EE878A83ED008A3E4B18683E
:1044B00005F082F83D4B002204F01EFF28A3D3E94B
:1044C000002305F0D1F83A4B002204F017FF05F065
:1044D000C3FB07EE900AC8EE277A17EE900A05F0A4
:1044E0006BF821A3D3E9002304460D4605F0BCF880
:1044F00022462B4605F0B8F822462B4605F0B4F8C4
:104500001BA3D3E9002306460F462046294605F0A3
:10451000ABF822462B4605F0A7F802460B4630467C
:10452000394604F0E9FE14A3D3E9002306460F46FA
:104530002046294605F098F802460B463046394693
:1045400004F0DCFE1B4B002205F08EF805F084FB26
:10455000194B1860BDEC028BF8BD00BFAFF30080B3
:104560007B14AE47E17A943F3D0AD7A370AD60401B
:10457000EC51B81E85FB6F4085EB51B81ECB8A40CD
:104580006CE2032074E2032014E303209CE2032086
:1045900068E2032070E20320D8E3032018E303203D
:1045A00000F07F4590E3032018DC03200000394031
:1045B0000000F03F0000E03FCCE5032008B50548CF
:1045C00000F0DEFF28B1034800F0FEFF024B83ED50
:1045D000000A08BDD8E503201CE603200000000007
:1045E00010B5254C204601F0DFFA244B10EE100ADE
:1045F00083ED000A04F0E0FF9FED154B9FED163BA5
:104600009FED172B9FED181B41EC100B03F084FD61
:1046100051EC100B05F020FB194B1860204601F0FF
:104620003DFB184B10EE100A83ED000A04F0C4FFA6
:104630000FA3D3E9002305F017F805F00DFB124B8B
:104640001860204601F0E0FA104B83ED000A10BD1F
:104650000000000000806A400000000000004040B0
:1046600000000000000059400000000000000000B1
:104670001FA8AED74F5A333F94E30320D0E5032061
:10468000D4E5032084E5032080E50320C8E503206A
:1046900008B54FF490714FF4857004F054F8014B55
:1046A000186008BD20E2032008B54FF49C614FF468
:1046B000996004F048F804F06DFF044B002205F007
:1046C000FDF805F0C9FA024B186008BD00408F40A4
:1046D0001CE2032010B5304C88B0204602F09CF953
:1046E0002046012102F0E5FC2046012102F0E6FC13
:1046F00000221146204602F0D9FC2849204603F04A
:1047000017FB274B002193ED000A204603F014FC11
:104710002449204603F00CFB234B186804F04CFF9F
:104720000B46224902460868CDE9062304F044FFFF
:10473000CDE904011E49096802911E49086804F088
:104740003BFFDDE90623CDE900011B492046FFF7C9
:104750001DFD1A4B186804F02FFF0B46184902463E
:104760000868CDE9062304F027FFCDE904012521DF
:1047700002911449086804F01FFFDDE90623CDE922
:10478000000111492046FFF701FD204608B0BDE8B1
:10479000104002F09DB900BFDCE3032028C30B00EA
:1047A000CCE5032035C30B001CE503201CE60320E9
:1047B00020E203201CE203203BC30B00D4E50320CE
:1047C00080E50320C8E5032081C30B002DE9F043F9
:1047D0004C48DFF87C914C4CDFF878814B4F4C4EC5
:1047E0004C4D87B001F014FC002846D0D9F80000E9
:1047F00004F0E2FE41EC100B0221474801F014FFE7
:10480000206804F0D9FE41EC100B0221434801F06E
:104810000BFFD8F8000004F0CFFE41EC100B022192
:104820003F4801F001FF3F4B186804F0C5FE41EC22
:10483000100B02213C4801F0F7FE3C4B3C48196844
:1048400001F0E3FE386804F0B7FE41EC100B0221E2
:10485000384801F0E9FE306804F0AEFE41EC100B80
:104860000221354801F0E0FE286804F0A5FE41EC85
:10487000100B3248022101F0D7FE03F02FFE304921
:1048800003F056FA03F02AFE94ED000A002103F02B
:1048900053FB03F023FE2B4903F04AFA03F01EFEFC
:1048A0000446D9F8000004F087FE02460B46D8F80B
:1048B0000000CDE9042304F07FFEDDE90423CDE907
:1048C000000121492046FFF761FC03F007FE044682
:1048D000386804F071FE02460B463068CDE90423C7
:1048E00004F06AFECDE90201286804F065FEDDE906
:1048F0000423CDE9000115492046FFF747FC07B026
:10490000BDE8F08310E40320CCE50320D4E50320C8
:1049100080E50320C8E5032058E5032030E20320AA
:1049200020E603201CE2032004E6032020E203200B
:1049300010E6032090E2032084E2032078E20320C3
:10494000BAC30B00C7C30B00CEC30B00FBC30B00E5
:104950001CE503201CE6032038B5074D074C4FF437
:104960007A71284601F04BFC28B1A042F7D1601DB6
:1049700005F002FDF3E738BD10E4032088E50320CD
:1049800008B50121042004F0ECFA40F2EE2003F017
:1049900006FC0021042004F0E4FA03F09FFD024924
:1049A000FFF7F4FB08BD00BF41C40B00064B93EDBD
:1049B000007AF1EE0A7AB4EEE77AF1EE10FA01DD50
:1049C000FFF7DEBF704700BF1CE50320F8B50D4CB4
:1049D000002600270C4D4FF47A71284601F00FFC99
:1049E00078B1A042F7D1601D05F0C6FC324651EC0B
:1049F000100B3B4605F0A0F80028EBD1FFF7C0FFF5
:104A0000E8E7F8BD20E5032010E4032008B5012104
:104A1000052004F0A6FA40F2EE2003F0C0FB0021CE
:104A2000052004F09EFA03F059FD0249FFF7AEFBA2
:104A300008BD00BF50C40B00064BDFED077A93EDB5
:104A4000007AB4EEE77AF1EE10FA01D5FFF7DEBF97
:104A5000704700BFCCE5032000802244F8B50D4C20
:104A6000002600270C4D4FF47A71284601F0C7FB51
:104A700078B1A042F7D1601D05F07EFC324651ECC2
:104A8000100B3B4605F058F80028EBD1FFF7BEFFAE
:104A9000E8E7F8BDE4E4032010E403202DE9F04149
:104AA000184801F037FA58BB03F018FD1649154EA7
:104AB000DFF86080154F03F03BF9124801F049FD23
:104AC0000446C0B103F00AFD21460546304601F018
:104AD00059FB414602462846FFF758FB03F0FEFC0F
:104AE0003946FFF753FB304601F05AFB41F288305C
:104AF00003F055FBE1E703F0F1FC0549FFF746FB46
:104B0000BDE8F08110E4032061C40B007CC40B00FD
:104B1000A5C40B0078C40B0010B50F4C02F04AFB83
:104B20002368C01A0D4B984214D903F0D7FC0C49E6
:104B3000FFF72CFB0B48012101F0DBFB38B903F038
:104B4000CDFC0949FFF722FB064801F029FB02F0E2
:104B500031FB206010BD00BF00E40320C0D4010081
:104B6000B6C40B0010E40320C5C40B001FB5FFF74B
:104B700095FF03F0B6FA0246C317684603F058FAE9
:104B800069463748374C03F067F8684602F0E8FF9B
:104B900012230B223249684603F066F86946324810
:104BA00003F05AF8684602F0DBFFFFF707FDFFF756
:104BB0000FFCFFF7B3FBFFF713FDFFF769FDFFF7EE
:104BC00073FD2378B3B10121082004F0CAF902F083
:104BD000F1FA264B1B68C01A254B98420AD90021CE
:104BE000082004F0BEF903F079FC2249FFF7CEFA61
:104BF00000232370204C02F0DDFA2368C01A42F231
:104C00001073984204D9FFF765FD02F0D3FA2060D3
:104C10001A4C02F0CFFA2368C01A47F23053984278
:104C200004D9FFF7D3FD02F0C5FA2060144C02F05E
:104C3000C1FA2368C01A134B984206D9FFF7B6FE93
:104C4000FFF7FAFE02F0B6FA2060FFF765FFFFF704
:104C5000BDFEFFF703FF04B0BDE81040FFF77CBEC8
:104C60000CE20320C0E5032058E20320C4E5032042
:104C7000F0490200D5C40B0008E403200CE4032033
:104C800004E40320804F120010B52421044604F0F0
:104C900010FA204610BD10B5D421044604F009FADC
:104CA000204610BDF0B5644F644C654E654D89B02B
:104CB0003946204602F09FFF2046634C3246294683
:104CC00004F0F2F93946204602F095FF32462946B3
:104CD000204604F0E9F95D4B049304AF5C4D5D4B55
:104CE0002B6097E8030002AA05F10C0382E8030099
:104CF00093E8030087E8030092E8030083E80300D9
:104D0000554B6B61AB6907930024544B2C71AC601D
:104D1000AB61534A534906942B46CDE9004405F153
:104D2000080002F07FFA3846FFF73EFA28464E4D5B
:104D30004E494F4F324604F0B7F90321284601F09F
:104D400055FE32464B49284604F0AEF94A484B4DD1
:104D500000F086FC22461221494800F026FB384626
:104D600003F0B2FF32464749384604F09DF9464BFE
:104D700000934649464B40F25B72284601F07EF9AB
:104D8000444B2B60C5F8D07032464349284604F0A6
:104D90008BF923462946414A414801F031FC23461C
:104DA0002946404A404801F02BFC234629463F4A09
:104DB0003F4801F025FC234629463E4A3E4801F083
:104DC0001FFC234629463D4A3D4801F019FC234675
:104DD00029463C4A3C4801F013FC234629463B4AFD
:104DE0003B4801F00DFC234629463A4A3A4801F077
:104DF00007FC23462946394A394801F031FC23464D
:104E00002946384A384801F02BFC2946374A384DA4
:104E10003848234601F024FC374BAB60C5E9004419
:104E2000022002F0BFFB35493246284609B0BDE8F2
:104E3000F04004F039B900BF40C40B000CE203207D
:104E400008E20320617B0B0058E20320CD400B00F9
:104E500064E50320ECC60B0075410B0089410B0093
:104E600005410B00804F1200DCE30320BD410B0025
:104E70003CE20320C9400B0094E3032010E403202C
:104E8000D8E5032041410B00F8C40B00E8C40B0037
:104E9000E0C40B0058C70B00CB400B0019C50B003A
:104EA00030E203203FC50B0058E5032064C50B002A
:104EB00020E603208EC50B0004E60320B8C50B00D6
:104EC00010E60320E3C50B0090E203200DC60B00A3
:104ED00084E203203BC60B0078E2032069C60B0086
:104EE00020E503208EC60B00E4E40320B8C60B00C7
:104EF00024E2032088E503200000FFFFE9400B00C7
:104F000010B503682F2B044604D9074A00210A2054
:104F100002F030FB23681F2B83BF03F01F030348FD
:104F200023604FF0A04010BDA5710B00000300509E
:104F3000002102F0EFB8012102F0ECB82DE9F341B5
:104F40000446204F204E03F0F3FA25883B78BFF348
:104F50005B8F13F0010F09D13846FFF7ADF828B188
:104F600002F0C8F830603846FFF7ABF833682D011F
:104F70005B5D4FEA43183B78BFF35B8FDB0709D4D7
:104F80001048FFF799F828B102F0B4F830600D48E6
:104F9000FFF797F833681D4401A86B7803F01F03EF
:104FA00043EA08030193FFF7ABFF019A0123934003
:104FB000C0F808352088FFF7BEFF02B0BDE8F04119
:104FC00003F0B8BA2CE6032030E60320F7B51B4DFA
:104FD0001B4E2B78BFF35B8F13F0010F044609D1F2
:104FE0002846FFF769F828B102F084F830602846B7
:104FF000FFF767F8336824011B5D5F012B78BFF36F
:105000005B8FDB0709D40D48FFF756F828B102F093
:1050100071F830600948FFF754F83068044401A87B
:10502000637803F01F033B430193FFF769FF019A85
:1050300001239340C0F80C3503B0F0BD2CE60320EB
:1050400030E603202DE9F341204E214F3378BFF3A2
:105050005B8F13F0010F054609D13046FFF72CF89E
:1050600028B102F047F838603046FFF72AF83B686D
:105070002D015C5D3378BFF35B8FDB074FEA44188B
:1050800009D41248FFF718F828B102F033F8386055
:105090000E48FFF716F83868054401A86C7804F04C
:1050A0001F0444EA08040194FFF72AFFD0F81035E2
:1050B000019401A8FFF724FF019BD0F81005D84008
:1050C00000F0010002B0BDE8F08100BF2CE6032033
:1050D00030E6032038B504460D462846002103F08B
:1050E0002FFF2580204638BD70B5054603F020FA15
:1050F0002888FFF71DFF03F01DFA7D24013C14F002
:10510000FF042BD0022002F04DF82888FFF79AFF09
:105110000028F3D003F00CFA2888FFF757FF2888FF
:10512000FFF709FF03F006FA4FF4F07002F03AF8C7
:1051300002F048F806462888FFF7FAFE462002F0FB
:1051400031F82888FFF77EFFB0FA80F4304602F08D
:1051500041F84FF4CD70640902F024F8204670BD88
:1051600038B5CB07044616D502F02CF80546208842
:10517000FFF72CFF2088FFF7DEFE012002F012F877
:105180002088FFF7D5FE284602F024F83B20BDE832
:10519000384002F007B802F015F805462088FFF7FE
:1051A00015FF2088FFF7C7FE412001F0FBFF208894
:1051B000FFF7BEFE284602F00DF80520E7E738B5F8
:1051C000044601F0FFFF05462088FFF7FFFE208818
:1051D000FFF7B1FE012001F0E5FF2088FFF7A8FEF0
:1051E0000D2001F0DFFF2088FFF72CFF0446284642
:1051F00001F0F0FF2E2001F0D5FF204638BDF7B5B5
:105200000F46154608260124274214BF012100211C
:1052100001906400FFF7A4FF013E0198E4B2F3D1CE
:1052200025B103B0BDE8F040FFF788BE03B0F0BD84
:10523000F8B507460826002501243846FFF7BFFFCA
:1052400000B125436400013EE4B2F6D12846F8BD22
:1052500070B500220C4655210646FFF7D0FF651EAB
:10526000073415F8011F00223046FFF7C8FFA5429A
:10527000F7D170BD002343810373C0F80230C0F83A
:10528000063070472DE9F84F057B044688466DB11E
:10529000002060812073A31C08F1FF380A3413F842
:1052A000012B08F8012F9C42F9D104E0FFF71CFF05
:1052B00018B960812073BDE8F88F2A46F021204696
:1052C000FFF79DFF0127AA463E462046FFF777FFDE
:1052D000814683462046FFF772FFB9F1010F0FD1D7
:1052E000012817D1402ED3D984F80AA0BAF1000FB3
:1052F00001D101232373A378002BC9D00120CAE771
:10530000814504EB050322D1A27AB24218D99A78DA
:10531000174216D062194FF0010B93783B439370FC
:10532000594620467F00FFF71BFF013617F0FF07A5
:10533000F6B2CAD10135EDB2082DD3D00127C4E7AA
:10534000E8D0082E00D8E6724FF0000BB2469A78EB
:1053500022EA07029A70E3E730B5024601440020D2
:105360008A4213D012F8015B082480EA050313F087
:10537000010F4FEA50001CBF80F08C03D8B2631EAF
:1053800013F0FF044FEA5505EFD1E9E730BD0023E4
:105390000022438242618361C3610362436280F8F9
:1053A000283080F829304385704738B504461546C3
:1053B000FFF790FE4FF47A732046A5732382FFF720
:1053C000E6FF38BD2DE9F0410B6883614B68C3618E
:1053D0000B78262B044600F1180560D008D8102B56
:1053E0000AD0222B59D0002084F82900BDE8F08192
:1053F000282BF8D1022300E0012384F8293020462D
:10540000FFF772FE29462046FFF722FFA27B4421C8
:105410002046FFF7F4FE208A02F0C1FE2046FFF787
:1054200063FE29462046FFF713FF0022B8212046DD
:10543000FFF7E5FE002211462046FFF7E0FE20467A
:10544000FFF752FE29462046FFF702FF0022BE2149
:105450002046FFF7D4FE94F82930042B04D1002213
:1054600011462046FFF7CBFE04F1200504F1290781
:105470002E462046FFF7DCFE05F8010BBD42F8D1B1
:1054800008213046FFF768FF94F82830834208D09F
:10549000012384F82B300020A8E70323ADE7042381
:1054A000ABE7238C638294F8293094F82150042BC5
:1054B0004DD194F8228007EE908AF8EE677A45EA9B
:1054C0000823ED08638217EE900A84F8215004F057
:1054D00073F807EE905AF8EE677A064617EE900AD0
:1054E0000F4604F069F8254B002204F0BDF818F0CF
:1054F000800F02460B4625D03046394603F0FCFEAD
:1055000004F0AAFB606115E094F82420B4F912308D
:1055100012F0600202D123F007032CE0202A0BD006
:10552000402A0CD0B4F9123007EE903AFAEECE7A57
:10553000C4ED057A012059E723F003031BE023F0B3
:10554000010318E03046394603F0D8FED8E7032BB4
:10555000F0D8012BD8D8EDD1B4F9123094F8272027
:10556000DB00102A6382DDD194F8262023F00F039C
:10557000C2F10C0213446382D4E700BF0000A03FD5
:1055800038B500F118052946FFF701FF0446FFF77B
:1055900079FE38B9012384F82A302046FFF76AFEE5
:1055A000002038BD07212846FFF7D6FEE37F83425F
:1055B00003D0012384F82B30F2E729462046BDE8CA
:1055C0003840FFF7FFBE000008B5406903F0F4FF64
:1055D00008A3D3E9002304F047F8054B002203F0A9
:1055E0008DFE04F039FB00EE100A08BDAFF3008019
:1055F00000004040CDCCCCCCCCCCFC3F704710B5AB
:105600001021044603F055FD204610BD73B5044635
:1056100008462279A36832B1A3B90B4902B0BDE8AC
:10562000704002F085BB094A267B094D0949647B1D
:10563000012E18BF2946CDE900140749FEF7A6FD43
:1056400002B070BD054AEFE709C70B0040C40B006C
:1056500005C70B0001C70B001FC70B00F8C60B00E6
:105660004FF0FF330361704713B50B4C2178BFF344
:105670005B8F11F001010BD120460191FEF71CFD5B
:10568000019928B1054802F0DDF82046FEF719FD22
:10569000024802B010BD00BF34E6032038E6032004
:1056A00008B5FFF7E1FFBDE8084002F011B907B502
:1056B0000190FFF7D9FF019903B05DF804EB02F008
:1056C00021B92DE9F04190F91330013305460F4619
:1056D00006D1FFF7C9FF3946BDE8F04102F0D8B95D
:1056E000002407264FF0010895F91300002180B22D
:1056F00003F037FC95F9110008FA06F1394080B241
:1057000003F02FFC95F91300012180B203F029FC6E
:1057100095F91200640080B2E4B203F03BFC08B1DA
:1057200044F00104013EDFD22046BDE8F0810000D4
:105730007FB590F91030013304460E46154613D15B
:105740000179006802F0E6FF2068036831469B6833
:1057500098472068036829469B689847206804B0EA
:10576000BDE8704002F0E1BF90F9133001330CD175
:10577000164B009300238DF80430154B02936846B6
:105780000123ADF80C30FFF792FF94F910000021CF
:1057900080B203F0E6FB06F07F012046FFF791FFA1
:1057A00029462046FFF78DFF94F91000012180B2B1
:1057B00003F0D7FB94F91330013304D104B0BDE8F2
:1057C0007040FFF76DBF04B070BD00BF44C70B0051
:1057D00020A10700F8B5DB0002F0070203F0380350
:1057E000134343EA81139DF8186080F83C3090F829
:1057F00040309DF81C509DF8207066F3471380F8E8
:105800004030ED0090F8383007F0070705F0380514
:1058100023F03F033D4304461D4380F8385006F013
:105820000702F221FFF784FF94F83820C2F3C20385
:1058300002F007019B0043EA411343EAD2122046DB
:10584000F521FFF775FF94F83C20C2F3C20302F084
:1058500007019B0043EA411343EA92122046F421D8
:10586000BDE8F840FFF764BF30B590F91030013360
:1058700085B004460D4618D10179006802F04AFF50
:105880002068036829469B689847206802F04DFF0E
:1058900021792068012202F03AFF206803685B69E1
:1058A0009847C5B2284605B030BD90F91330013392
:1058B0000CD1154B009300238DF80430134B029349
:1058C00068460123ADF80C30FFF7F1FE94F91000A3
:1058D000002180B203F045FB45F080012046FFF730
:1058E000F0FE00212046FFF7ECFE054694F910007B
:1058F000012180B203F035FB94F913300133D1D18B
:10590000FFF7CEFECEE700BF44C70B0020A1070083
:1059100008B5F321FFF7A8FF00F0010008BD000063
:1059200030B590F91030013385B004460D461FD1D3
:105930000179006802F0EEFE2068036829469B6842
:105940009847206802F0F1FE21792068022202F0D7
:10595000DEFE206803685B69984705462068036897
:105960005B69984740EA052085B2284605B030BDFE
:1059700090F9133001330CD1184B009300238DF8AC
:105980000430174B029368460123ADF80C30FFF743
:105990008EFE94F91000002180B203F0E2FA45F087
:1059A00080012046FFF78DFE00212046FFF789FE8B
:1059B000002105462046FFF784FE40EA052085B217
:1059C00094F91000012180B203F0CBFA94F913305E
:1059D0000133CAD1FFF764FEC7E700BF44C70B001D
:1059E00020A1070008B5FFF79BFF40BA80B208BDB1
:1059F00038B588210446FFF7F5FF8A21A0822046AA
:105A0000FFF7F0FF8C21E0822046FFF7EBFF8E21AD
:105A100020832046FFF7E6FF902160832046FFF7B2
:105A2000E1FF9221A0832046FFF7DCFF9421E08371
:105A30002046FFF7D7FF962120842046FFF7D2FFAC
:105A4000982160842046FFF7CDFF9A21A08420464C
:105A5000FFF7C8FF9C21E0842046FFF7C3FF9E218B
:105A600020852046FFF7BEFFA12160852046FFF775
:105A7000FBFEE12184F82C002046FFF7B3FFE32171
:105A8000E0852046FFF7F0FEE42184F83000204650
:105A9000FFF7EAFEE52105462046FFF7E5FE00F0A8
:105AA0000F0343EA05106086E6212046FFF7DCFE7F
:105AB000E52105462046FFF7D7FEC0F3071343EA6A
:105AC0000510A086E7212046FFF7CEFE84F83600B9
:105AD00038BD000030B590F91030013385B0044670
:105AE0000D4623D10179006802F014FE2068036896
:105AF00029469B689847206802F017FE21792068A4
:105B0000032202F004FE206803685B6998470502DF
:105B1000206803685B69984728430502206803688A
:105B20005B6998470543284605B030BD90F91330AE
:105B300001330CD11A4B009300238DF80430194B1C
:105B4000029368460123ADF80C30FFF7B0FD94F9DD
:105B50001000002180B203F004FA45F080012046D5
:105B6000FFF7AFFD00212046FFF7ABFD0021050246
:105B70002046FFF7A6FD2843050200212046FFF737
:105B8000A0FD054394F91000012180B203F0E9F96A
:105B900094F913300133C6D1FFF782FDC3E700BF8C
:105BA00044C70B0020A1070010B5FA210446FFF7F7
:105BB00091FFB0F5000F1FD0A18A9FED117A4B0025
:105BC000C1EB2022C3EBE011B4F91630594302FBBC
:105BD00002F3B4F918201B1353439B1303EBE12387
:105BE000E36003EB830380331B1207EE903AF8EE79
:105BF000E77A87EE870A10BD9FED020AFBE700BF38
:105C00000000C8420000C07F38B50446FFF7CCFF53
:105C1000FD212046FFF784FEB0F5004F38D0E16843
:105C2000B4F93420A1F59635B4F932100905C1EB69
:105C3000803305FB123303F58043DA1394F83030D8
:105C400094F936106B43DB126943891203F5004364
:105C50004B439B12B4F92E1003F500134B4303F58D
:105C600000539B135343DA1394F82C105243D21170
:105C70004A43A3EB221323EAE373B3F1C85FA8BF3F
:105C80004FF0C8531B1300EE103ABAEECB0A38BDE2
:105C90009FED010AFBE700BF0000C07F2DE9F8433C
:105CA0000546FFF781FFF7212846FFF713FFB0F500
:105CB000000F00F0B680E968B5F91C304FEAE17ECC
:105CC000B1F5FA314EF1FF3EDC1703FB0EF201FB9A
:105CD0000422A3FB013422441203A1FB01781C031C
:105CE00001FB0EF642EA1352B5F91E3008EB4608E6
:105CF0004FEAE37C03FB08F607FB0C66A3FB073CBB
:105D000066441B0A43EA06631B1942EB26226E8B8C
:105D100002F50042A3FB063406FB0244E3176210BF
:105D200053EA64044FF0000C7ED0B5F9244004FB24
:105D300008F64FEAE47907FB0966A4FB07473E44EF
:105D4000B5F922704FEAE77807FB0EFE01FB08EE7B
:105D5000A7FB01717144490441EAD73100117F0466
:105D60003F19C0F5801446EB010604F00040B5F978
:105D700020101CEB070740EA5400E407E41B06EB85
:105D8000C10640F6354160EB0606A4FB010401FBA9
:105D9000064104F0BFF8B5F92A20B5F928604FEAAA
:105DA000613C430B43EAC14302FB0CF7D41703FBEE
:105DB0000477A2FB03243C4402FB0CF703FB0477AB
:105DC000A2FB03231F44530E43EAC7131B184FEAD9
:105DD000E67206FB01F4864641EB676702FB004171
:105DE000A6FB0E06B5F926403144C00C40EA41300E
:105DF00018184FEAE47547EBE141000A2D0140EA2B
:105E0000016045EA14752401201845EB212104F0B6
:105E100043F89FED070A07EE900A27EE800ABDE8D7
:105E2000F8839FED040AFAE79FED030AF7E700BF46
:105E30000000803B0000C07F0000000030B5044639
:105E400090F91000421C85B019D1206802F030FC96
:105E5000D0212046FFF708FD6028A06045D12046EC
:105E6000B622E021FFF764FC4FF4967002F097F938
:105E70002046FFF74DFD054628B36420F6E70121D3
:105E800080B203F06EF894F91000012180B203F0A3
:105E900057F894F91300431C04D1FFF7E5FB01F018
:105EA000DBFCD5E7012180B203F04AF894F9110038
:105EB000012180B203F044F894F91200002180B26D
:105EC00003F03EF8C4E72046FFF792FD0523009358
:105ED0001A4603212046CDE90155FFF77BFC6420DB
:105EE00002F05DF9012005B030BD0020FBE777230B
:105EF00010B50371044603F0AFF820602046FFF7A9
:105F00009DFF30B9762323712046BDE81040FFF78E
:105F100095BF10BD08B5D0F8D00003681B6B98473B
:105F2000003818BF012008BDF8B506460F461446D4
:105F3000C4B1D6F8D00003681B6B984708B900209D
:105F4000F8BDD6F8D000FA2C03682546A8BFFA257C
:105F5000DB682A463946984783B2E41A9D42A4B2C8
:105F6000E6D0ECE70120EBE72DE9F843064688464A
:105F700091461F461D460024D6F8D00003681B6BCF
:105F80009847D0B1002D18DBD6F8D00003681B6904
:105F9000984760B1D6F8D00003685B69984708F865
:105FA00004000134A4B24C4507D03D46ECE70A3D5D
:105FB0000A202DB202F0F3F8DEE72046BDE8F883B0
:105FC00070B5044600F1220596220021284604F00F
:105FD00021FA6168284604F09BFAD4F8D00022899F
:105FE000036829465E6A0023B047003818BF0120C5
:105FF00070BD10B50446D0F8D00003681B6B9847FD
:1060000020B1D4F8D0000368DB6A9847012010BDA6
:1060100070B503689B6804469847C8B9204600F0ED
:1060200098FA042570B1013D15F0FF050AD020460D
:1060300000F0B6F841F2883002F0B1F8204600F0E6
:1060400088FAEFE7236820469B68BDE87040184750
:1060500070BD13B504460846019104F061FAC0F31F
:10606000072323706070A31C84B20199224618464E
:1060700004F094FA204402B010BD000030B5028153
:106080000A4A0B4DC0E90323039B43610023C0E987
:106090000051C0E92F33C0E93133C0E90633C0F8FD
:1060A000CC300384A0F8B83030BD00BF40C40B0032
:1060B00064C90B002DE9F74F164602681BB29769B9
:1060C0000193012205460C46B847C7B2012F019B38
:1060D00003D0002003B0BDE8F08F04F1010804F103
:1060E000050A4FF000092A680193D2F818B041461A
:1060F00001222846D847C0B20128EAD118F8012B5E
:1061000002F07F01C24501FB07994FEAC717E0D0B3
:1061100012F0800F019BE6D1A8EB0404A7B2341B58
:106120002A68013C4C45D2F818A03DBF06F1FF3269
:10613000D21B92B21FFA89F241462846D047C0B21C
:10614000384480B2C6E700002DE9F041DFF8308026
:1061500005460C4616461F463B46962221462846D3
:10616000FFF7A8FF48B12378B6EB131F05D002F064
:10617000B5F9414601F0EFFDEEE7BDE8F08100BF63
:1061800074C70B000231C9B209299ABF024B53F8F8
:1061900021000248704700BF80C90B0085C70B0073
:1061A00010B5E02380F822300146002380F8233028
:1061B00051F8223B04465B69022298472368204637
:1061C0001B69BDE81040184700F1BC0230B513460A
:1061D00000F1D00453F8045B8D4209D0A342F9D1F9
:1061E000002352F8044B2CB900EB8300C0F8BC101C
:1061F000012003E00133052BF3D1002030BD2DE950
:10620000F04F00F122098BB285B09622494605462F
:10621000FFF750FF0646F0B195F82570009705F19D
:10622000BC0A4FF0000805F1260B5AF8044B6CB17C
:1062300021680191084604F073F9B84206D101992A
:106240003A46584604F074F9002848D008F101088D
:10625000B8F1050FE9D100203EE0EA1992F82600D6
:1062600092F827A04AEA002A14220021601D04F0B7
:10627000D1F8009BC3F57F44FC34264405EB880825
:10628000A6EB0B06B6B2152ED8F8BC0007F1040138
:1062900028BF1326594432464944053004F0A0F87B
:1062A000D8F8BC305E8395F8223003F00603022B49
:1062B00010D18DF80D304FEA1A238DF80E302B686F
:1062C0008DF80FA040228DF80C205B69042203A9F1
:1062D00028469847D8F8BC0005B0BDE8F08F95F87F
:1062E00022B00BF0060BBBF1020FB6D082468346FC
:1062F000BAE72DE9F84304460D464FF0000800F1D7
:1063000022074FF0C009E5B1236884F8229084F891
:1063100023805B690222394620469847064668B1C9
:106320004FF4FA730D2239462046FFF70DFF94F81B
:106330002230D02B02D13046BDE8F883013DEDB2CA
:10634000E1E72E46F7E7000038B50546084610237A
:1063500000F8023B0C462949FFF77BFE042303703B
:1063600002234370AB698BB11B787BB1062343706A
:1063700095F82030012B39D10E23437095F8213048
:10638000012B02BF437843F0200343702B691B7835
:106390001BB1437863F07F0343706B691B781BB1BB
:1063A000437843F040034370012383702C23C37070
:1063B000E9680B78F3B10430FFF74BFEA96931B1FE
:1063C0000B7823B1FFF745FEE969FFF742FE296923
:1063D0000B780BB1FFF73DFE69690B780BB1FFF746
:1063E00038FE001BC0B2831E637038BD022BC5D1BE
:1063F0001E23C2E7037143710630DFE793C70B002A
:106400002DE9F743054610460E469846019204F0E2
:1064100087F89DF82C90BDF82870019984B2B9F1E5
:10642000000F35D102344FEA49033046A4B243F09D
:1064300030033C4400F8013BA4B2224604F07F0341
:106440007F2A88BF43F080037F2A00F8013B4FEA90
:10645000D414F2D8FFF7FDFD0346B9F1000F0CD0BC
:10646000B5F8B820120A0270B5F8B8204270B5F835
:10647000B82001320233A5F8B8203A464146184602
:1064800003F0AEFF3844801B80B203B0BDE8F08358
:106490000434C8E773B59DF8186000F1220504467E
:1064A000CDE9003613460A462946FFF7A9FF2368BF
:1064B00002465B6929462046984710B9002002B081
:1064C00070BD002EFBD04FF4FA7396222946204669
:1064D000FFF7F0FD0428F1D194F822301B09042BBA
:1064E000ECD1A38CB4F8B8005BBA01339BB2C31AE9
:1064F00058425841E3E730B585B0044610461D4682
:106500000391029204F00CF8DDE9022183B20095B8
:106510002046FFF7BFFF05B030BD38B51D468223CA
:106520000B70B0F8B8301B0A8B70B0F8B830CB7075
:10653000B0F8B8300C460133A0F8B8301146201D31
:10654000FFF787FD00F8015B001BC0B2831E63707C
:1065500038BD2DE9F0410368DB6804469847002800
:106560004BD004F1220529462046FFF7EDFE2368B3
:1065700082B25B6929462046984700283DD041F207
:106580007073962229462046FFF794FDC0B2042876
:1065900033D1638CB3F5087F2FD194F8250010B167
:1065A00040B2BDE8F08104F1BC0704F1D00857F80F
:1065B000043BF3B1032657F8042C294613791268DB
:1065C0002046FFF7AAFF236882B25B69294620466E
:1065D000984790B14FF4FA73092229462046FFF7F5
:1065E000B3FD30B9013E16F0FF06E4D16FF00100B3
:1065F000D7E7B845DBD10020D3E74FF0FF30D0E735
:1066000010B5C0E90012037210BD1FB504460A227E
:10661000084601A901F060FAD4E90001237A01AA31
:10662000FFF769FF04B010BDD0B557EC106B90B008
:1066300004460B4600220949684601F07FF83246BD
:106640003B46694605A801F079F8D4E90001237AB0
:1066500005AAFFF750FF10B0D0BD00BF98C70B00D0
:1066600010B503710023C0E90833C0E90A33416360
:1066700002604383C361036310BD0000F0B5457E33
:10668000BDF81440022D69D0032D00F09980012D32
:106690006CD10589D2432A4412B2002A5DDBB0F9DD
:1066A0000850954259DD0029BEBF5B181BB200217E
:1066B000B0F90A00CD188542C4BF431A1BB2002BA3
:1066C0004BDDC1F3C400DFF820C102EBC01211F0B2
:1066D0000701DBB20CEB02001AD0C1F10805404EF5
:1066E000EDB2AB42775D3FBFA5EB030EFF2646FA46
:1066F0000EF637401CF80260012C0CBF3E43BE432F
:10670000AB420CF8026028D308390B44DBB280306E
:10671000072B19D9012C4FF0FF3518BF0025EDB21A
:1067200000F180011A46083AD2B2072A01F8805CCB
:1067300001F18001F7D8A3F10802C2F3C4020132CB
:1067400000EBC21003F007033BB1264AD25C03788A
:10675000012C0CBF134393430370F0BD4589D24312
:106760002A44CD180189491B12B209B2002AF4DB70
:10677000B0F90A509542F0DD0029BEBF5B181BB28C
:106780000021B0F90870CE18BE42C4BF6B1A1BB20C
:10679000002BE2DDD010802510FB051112480144CA
:1067A00002F0070001228240012CD2B20B440CD12E
:1067B0008B42D2D011F8010B104301F8010CF7E71E
:1067C000CD184189491B09B267E7D243D2B28B4247
:1067D000C3D011F8010B104001F8010CF7E700BF1E
:1067E00024DC03201CDC03202CDC0320F0B5457ED8
:1067F000BDF81440022D34D0032D00F09B80012DF4
:1068000037D1D5180289521B12B20029C0F29180EB
:10681000B0F90A508D4240F38C80002ABEBF9B180D
:106820001BB20022B0F90870D618BE42C4BFAB1A22
:106830001BB2002B7DDDC810802510FB05224548CA
:10684000024401F0070001218140012CC9B2134428
:1068500075D19A426DD012F8010B084302F8010C71
:10686000F7E70589C9432944D5184289521B09B263
:1068700012B200295DDBB0F908508D4259DD002AC3
:10688000BEBF9B181BB20022B0F90A00D518854282
:10689000C4BF831A1BB2002B4BDDC2F3C400DFF868
:1068A000B4C001EBC01112F00702DBB20CEB010027
:1068B0001AD0C2F10805284EEDB2AB42775D3FBF5A
:1068C000A5EB030EFF2646FA0EF637401CF80160D2
:1068D000012C0CBF3E43BE43AB420CF8016028D3F1
:1068E000083A1344DBB28030072B19D9012C4FF042
:1068F000FF3518BF0025EDB200F180011A46083AB5
:10690000D2B2072A01F8805C01F18001F7D8A3F127
:106910000802C2F3C402013200EBC21003F0070305
:106920003BB10E4AD25C0378012C0CBF1343934356
:106930000370F0BD4589C943294409B265E7C943DD
:10694000C9B29A42F5D012F8010B084002F8010CC6
:10695000F7E700BF2CDC032024DC03201CDC032031
:10696000F8B50D1E064614461F462DDB00F0ABFBA6
:10697000A84229DD002C27DB304600F0A7FBA0420F
:1069800022DD304600F09DFB02281ED0032825D0D2
:10699000012804D13389E2431A442C4615B2002C55
:1069A0002246B8BFE21DD210802112FB01550E49CC
:1069B000012204F007044B5702FA04F464B2974230
:1069C0000CBF2343A3434B55F8BD3189728901396C
:1069D000E4434D1B14442DB224B2E0E77389013B1C
:1069E0005B1B25461CB2DAE72CDC032038B54022BD
:1069F00004460D46802100F08BFA064B2360FF23EE
:106A000084F8213063774FF6FF73E38384F82050D6
:106A1000204638BDB0C90B0002484FF48062002107
:106A200003F0F8BC2CDC032007B590F8223043B10A
:106A30000191FEF719FE019903B05DF804EB01F036
:106A400027B80B46817F407F012203B05DF804EB3D
:106A500002F0CABA38B590F91D30013304460D462C
:106A60001DD090F92100012180B202F07AFA94F948
:106A70001F00002180B202F074FA94F92100002175
:106A800080B202F06EFA29462046FFF7CDFF94F956
:106A900021000121BDE8384080B202F062BA02F064
:106AA000DBFA94F91B1001F039FE02F0D5FA036805
:106AB00000219B68984702F0CFFA036829469B683B
:106AC000984702F0C9FABDE8384001F02EBE000038
:106AD000F8B521210446FFF7BDFF00212046FFF74E
:106AE000B9FF7F212046FFF7B5FF22212046FFF79F
:106AF000B1FF00212046FFF7ADFF07212046FFF739
:106B0000A9FF94F91D30294F01332AD094F92100AF
:106B1000012180B202F025FA94F91F00012180B210
:106B200002F01FFA94F92100002180B202F019FA54
:106B3000012000F037FB4FF48065013D17F8011B81
:106B40002046ADB2FFF770FF002DF6D1012000F016
:106B500029FB94F921000121BDE8F84080B202F040
:106B600000BA002502F078FA94F91B1001F0D6FD66
:106B700002F072FA036840219B68984705F11006FD
:106B8000B6B202F069FA0368795D9B6898476B1C9E
:106B90009DB2AE42F5D102F05FFA01F0C6FDB6F546
:106BA000806F00D1F8BD3546DCE700BF2CDC032048
:106BB00038B590F91D300177013304460D46C27691
:106BC00000F0C98090F91F00012180B202F0B8F9ED
:106BD00094F92100012180B202F0B2F994F8223038
:106BE000002B00F0A68094F92100012180B202F070
:106BF000B8F9FEF739FD012100F042FEFEF734FD41
:106C0000102100F01FFFFEF72FFD002100F04CFEC9
:106C1000FEF72AFD00F020FE94F92000012180B249
:106C200002F08EF994F92000012180B202F099F966
:106C3000012001F0B4FA94F92000002180B202F0A2
:106C400090F90A2001F0ABFA94F92000012180B2FA
:106C500002F087F92046AE21FFF7FCFE2046D52141
:106C6000FFF7F8FE20468021FFF7F4FE2046A8211A
:106C7000FFF7F0FE20463F21FFF7ECFE2046D32130
:106C8000FFF7E8FE20460021FFF7E4FE2046402102
:106C9000FFF7E0FE8D212046FFF7DCFE012D0CBF43
:106CA000102114212046FFF7D5FE20462021FFF7B2
:106CB000D1FE20460021FFF7CDFE2046A121FFF79F
:106CC000C9FE2046C821FFF7C5FE2046DA21FFF79E
:106CD000C1FE20461221FFF7BDFE81212046FFF7AD
:106CE000B9FE012D0CBF9F21CF212046FFF7B2FE38
:106CF000D9212046FFF7AEFE012D0CBF2221F12144
:106D00002046FFF7A7FE2046DB21FFF7A3FE204623
:106D10004021FFF79FFE2046A421FFF79BFE20465F
:106D2000A621FFF797FE2046AF21BDE83840FFF7C8
:106D300091BE94F91D00012180B202F001F994F98D
:106D40001E00012180B202F0FBF894F82230002BE3
:106D50003FF462AF47E702F07FF901F0A9FC5BE77F
:106D60002DE9F04F85B01F46BDF93880BDF83C30A5
:106D7000A8EB0209A7EB010AB9F1000FB8BFC9F1EE
:106D80000009BAF1000FB8BFCAF1000AD145834625
:106D90000C46154604DD3A462C4647460D469046BD
:106DA000BC4205DD2A464546904622463C461746EB
:106DB0003E1BB2B20092A8EB050282EAE271A1EB9F
:106DC000E271C6F3C03202FA86F64545B4BF01222D
:106DD0004FF0FF32019176100292BC421CDCDBF8CE
:106DE00000200393D145D2F81080C7BF2946224620
:106DF0002A4621465846C047019A039BB61AB1B2AB
:106E000036B2002E05DA029A1544009A56182DB2B1
:106E100036B2013424B2E0E705B0BDE8F08F2DE9C9
:106E2000F347BDF82C800768BDF92890CDF80080A5
:106E30000446FF6916468A461D46B8472368CDF8C2
:106E4000008009F1FF323244DF6951462B4620466B
:106E500012B2B8472368CDF800809F6932464B468E
:106E600051462046B8476B1E03EB0A012368CDF854
:106E700028809D6932464B4609B22046AC4602B096
:106E8000BDE8F047604737B5013B13440468BDF8DF
:106E9000185001951BB2009364690B46A04703B0DC
:106EA00030BD37B5BDF818500468CDE90025013B69
:106EB0000B4464691BB2A04703B030BD2DE9F34712
:106EC000BDF92890BDF82C80054692460C46CE1898
:106ED000B4420BDA2B68CDF800809F6921464B46FF
:106EE000524628460134B84724B2F1E702B0BDE863
:106EF000F08713B502680191B0F90E100091546A41
:106F0000B0F90C3000221146A04702B010BD704706
:106F100030B54281C2814FF0FF320024054D4261FD
:106F200001224460056001818181046102838276CF
:106F300030BD00BFE4CE0B002DE9F04F2DED028BEC
:106F40008DB007460491BDF860100591BDF864103E
:106F50000691B0F90C1004989DF86850814252DDFA
:106F6000B7F90E1091424EDD062111FB0504002CED
:106F700049DD02EBC504002C45DD03EB83030B93D5
:106F800093B2079308339BB2089100240993052C10
:106F90001CBF2C4B0B9A079E16BF1B1900239B5C32
:106FA0000393049AABB20A9304FB05F313FA82F33A
:106FB0001BB204EB020A08EE103AB0460FFA85F94C
:106FC0000FFA8AFA039BDB072FD5012D3B681FD1EF
:106FD000D3F810B0059B32B251463846D847039BD0
:106FE0005B0803930A9B01369844099BB6B2B342EF
:106FF0001FFA88F8E6D1089B013B013413F0FF0328
:1070000064B20893C3D10DB0BDEC028BBDE8F08F24
:10701000059ACDE9009218EE101AD3F824B00FFAB1
:1070200088F24B463846D847D9E7DDE90523934235
:10703000D5D0012D3B6803D1D3F810B0069BCAE729
:10704000069AE6E7E0C90B0030B50A2985B0044688
:1070500007D1027E638A03EBC2036382002323828B
:1070600021E00D291FD0037E0293C38A0193838AF6
:107070000093B0F912200B46B0F91010FFF75CFF37
:10708000207E238A00EB400103EB4103A17E1BB26B
:107090000246238239B1B4F90C106FF0050505FBE7
:1070A00000118B42D6DC012005B030BD0182428246
:1070B0007047012938BF012101767047C182818262
:1070C0007047407E7047B0F90C007047B0F90E0071
:1070D0007047000008B5024B1B689B68019308BD10
:1070E0006802030008B5024B1B68DB68019308BD0A
:1070F0006802030008B5024B1B681B68019308BDBA
:107100002C02030008B5024B1B685B68019308BDA5
:107110002C02030008B5024B1B689B68019308BD55
:107120002C02030008B5024B1B68DB68019308BD05
:107130002C02030008B5024B1B681B69019308BDB4
:107140002C02030008B5024B1B685B69019308BD64
:107150002C02030008B5024B1B681B6A019308BD93
:107160002C02030008B5024B1B685B6A019308BD43
:107170002C02030008B5024B1B681B6B019308BD72
:107180002C02030008B5024B1B685B69019308BD24
:107190006C02030008B5024B1B685B68019308BDD5
:1071A0001802030008B5024B1B68DB68019308BD99
:1071B0001802030008B5024B1B685B69019308BD08
:1071C0001802030008B5024B1B689B6B019308BDB6
:1071D0001802030008B5024B1B68DB6B019308BD66
:1071E0001802030008B5024B1B689B6D019308BD94
:1071F0001802030008B5024B1B685B6E019308BDC3
:107200001802030008B5024B1B68DB68019308BD38
:107210004802030008B5024B1B68DB69019308BDF7
:107220004802030008B5024B1B681B6A019308BDA6
:107230004802030008B5024B1B685B6A019308BD56
:107240004802030008B5024B1B689B6A019308BD06
:107250004802030008B5024B1B68DB6A019308BDB6
:107260004802030008B5024B1B685B6C019308BD24
:107270004802030008B5024B1B689B6C019308BDD4
:107280004802030008B5024B1B681B6F019308BD41
:107290004802030008B5024B1B685B69019308BDF7
:1072A0006402030008B5024B1B681B6A019308BD0A
:1072B0006402030008B5024B1B689B6A019308BD7A
:1072C0006402030008B5024B1B681B68019308BDEC
:1072D0003C02030008B5024B1B68DB68019308BD44
:1072E0003C02030008B5024B1B681B69019308BDF3
:1072F0003C02030008B5024B1B685B69019308BDA3
:107300003C02030008B5024B1B689B69019308BD52
:107310003C02030008B5024B1B68DB69019308BD02
:107320003C02030008B5024B1B681B6A019308BDB1
:107330003C02030008B5024B1B689B6A019308BD21
:107340003C02030008B5024B1B68DB68019308BDD3
:107350002802030008B5024B1B689B69019308BD16
:107360002802030008B5024B1B68DB69019308BDC6
:107370002802030008B5024B1B681B6A019308BD75
:107380002802030008B5024B1B685B6A019308BD25
:107390002802030008B5024B1B689B6A019308BDD5
:1073A0002802030008B5024B1B68DB6A019308BD85
:1073B0002802030008B5024B1B681B6B019308BD34
:1073C0002802030008B5024B1B685B6B019308BDE4
:1073D0002802030008B5024B1B681B6C019308BD13
:1073E0002802030008B5024B1B681B6D019308BD02
:1073F0002802030008B5024B1B689B69019308BD76
:107400003802030008B5024B1B68DB69019308BD15
:107410003802030008B5024B1B681B6A019308BDC4
:107420003802030008B5024B1B689B6A019308BD34
:107430003802030008B5024B1B681B6B019308BDA3
:107440003802030008B5024B1B689B6B019308BD13
:107450003802030008B5024B1B681B68019308BD86
:107460003002030008B5024B1B689B68019308BDFE
:107470003002030008B5024B1B68DB68019308BDAE
:107480003002030008B5024B1B681B69019308BD5D
:107490003002030008B5024B1B685B69019308BD0D
:1074A0003002030008B5024B1B68DB69019308BD7D
:1074B0003002030008B5024B1B681B6A019308BD2C
:1074C0003002030008B5024B1B685B6A019308BDDC
:1074D0003002030008B5024B1B68DB6B019308BD4B
:1074E0003002030008B5024B1B681B6C019308BDFA
:1074F0003002030008B5024B1B685B6C019308BDAA
:107500003002030008B5024B1B681B68019308BDDD
:107510004C02030008B5024B1B685B68019308BD71
:107520004C02030008B5024B1B681B69019308BDA0
:107530004C02030008B5024B1B685B69019308BD50
:107540004C02030008B5024B1B689B69019308BD00
:107550004C02030008B5024B1B68DB69019308BDB0
:107560004C02030008B5024B1B681B6A019308BD5F
:107570004C02030008B5024B1B685B6B019308BD0E
:107580006002030008B5024B1B681B6D019308BD28
:107590006002030008B5024B1B681B68019308BD1D
:1075A0002002030008B5024B1B685B68019308BD0D
:1075B0002002030008B5024B1B685B69019308BDFC
:1075C0002002030008B5024B1B689B6D019308BDA8
:1075D0002002030008B5034B1B68D3F888300193E1
:1075E00008BD00002002030008B5034B1B68D3F858
:1075F0009430019308BD00002002030008B5024B3F
:107600001B685B68019308BD4002030008B5024B8C
:107610001B689B68019308BD4002030008B5024B3C
:107620001B68DB68019308BD4002030008B5024BEC
:107630001B681B69019308BD4002030008B5024B9B
:107640001B685B69019308BD4002030008B5024B4B
:107650001B689B69019308BD4002030008B5024BFB
:107660001B68DB69019308BD4002030008B5024BAB
:107670001B681B6A019308BD4002030008B5024B5A
:107680001B681B6B019308BD4002030008B5024B49
:107690001B685B6B019308BD4002030008B5024BF9
:1076A0001B681B6C019308BD4002030008B5024B28
:1076B0001B685B6C019308BD4002030008B5024BD8
:1076C0001B689B68019308BD4402030008B5024B88
:1076D0001B685B69019308BD4402030008B5024BB7
:1076E0001B68DB6A019308BD4402030008B5024B26
:1076F0001B681B6B019308BD4402030008B5024BD5
:107700001B68DB6B019308BD4402030008B5024B04
:107710001B681B68019308BD1C02030008B5024BDF
:107720001B685B68019308BD1C02030008B5024B8F
:107730001B689B68019308BD1C02030008B5024B3F
:107740001B68DB68019308BD1C02030008B5024BEF
:107750001B681B69019308BD1C02030008B5024B9E
:107760001B685B6A019308BD1C02030008B5024B4D
:107770001B681B6B019308BD1C02030008B5024B7C
:107780001B68DB6B019308BD1C02030008B5024BAC
:107790001B681B6C019308BD1C02030008B5024B5B
:1077A0001B685B6C019308BD1C02030008B5024B0B
:1077B0001B68DB6C019308BD1C02030000224068BB
:1077C0001146FFF753BF002240681146FFF75EBF26
:1077D00040680022FFF752BF4068002281F001019B
:1077E000FFF73CBF002340681A461946FFF72EBF3B
:1077F000002340681A461946FFF720BF0022406860
:107800001146FFF713BF002240681146FFF7FEBE86
:10781000406800220221FFF701BF002340681A469A
:10782000FFF7ECBE024B03225A60024A1A6070470F
:1078300040E603201CCF0B000021FFF75BBE0021B8
:10784000FFF750BE10B5044608462170FFF72AFE28
:1078500000236360204610BD13B504460078FFF78F
:10786000EEFF58B9207801904FF6FF71FFF7F2FD57
:10787000019802B0BDE81040FFF7DEBF02B010BDB6
:1078800013B5044600780191FFF7D9FF019948B973
:1078900020780190FFF7E6FD019802B0BDE81040A6
:1078A000FFF7CABF02B010BD13B5044600780191BE
:1078B000FFF7C5FF019948B920780190FFF7DAFD7D
:1078C000019802B0BDE81040FFF7B6BF02B010BD8E
:1078D0000078FFF7B1BF0000400830B51860002401
:1078E00018688842E5B206D90134082C02D0400855
:1078F0001860F5E70725024B5B5D137030BD00BFD4
:1079000050CF0B002DE9F04306468FB000780C46AF
:10791000FFF795FF00281BDB35781422002109A80A
:1079200002F078FD0B23002209A92846ADF8243087
:10793000FFF7C8FD9DF82D3013B19DF82C5055B1BF
:107940000027B946B846012523795DB1C3B10020AF
:107950000FB0BDE8F083DDF830809DF834909DF8DD
:107960003570F1E7002B35D1A368434508D18DF878
:1079700020908DF82170BDF82020A3899A42E6D08E
:107980000023A1688DF80F300A9804AB0DF10F02A7
:10799000FFF7A2FF217985B989B9A36843450ED3C2
:1079A0008DF820908DF82170BDF82020A3899A428F
:1079B00005D1049B434502D1C9E70029F9D1002331
:1079C0000193637B00939DF80F20237B3078FFF7B2
:1079D00081FDBCE7CDE900552B462A460121F5E79C
:1079E0002DE9F04188B000230446007802930E464A
:1079F0001746FFF724FF054600BB94F800800146B8
:107A0000142203A802F006FD0B232A4603A94046D0
:107A1000ADF80C30FFF756FD04988DF8075002AB17
:107A20000DF1070207FB06F1FFF756FF20789DF8DE
:107A30000710FFF727FD2078FFF7FEFE029808B039
:107A4000BDE8F08138B5044600780D46FFF7F7FE33
:107A50000346D0B9616899B10C4A12F8010B85420E
:107A600002D00133082BF8D10133DBB20122D94017
:107A70002046FFF7B5FF2078BDE83840FFF7DCBEB1
:107A800020782946FFF7FEFCF5E738BD50CF0B0004
:107A900008B50078FFF7FEFCC0B208BD10B5094B71
:107AA000094C02221A600020084BA360C4E90000C0
:107AB000FFF778FD2046064A0649BDE8104001F070
:107AC000F3BA00BF54E6032048E603200000FFFF9E
:107AD00008E20320E9400B002DE9F041931E8CB031
:107AE000222B4FF000030D4614468DF82C3027D979
:107AF00000282ADA2E462D2306F8013B40420A24AC
:107B00000DF12B074FF001082246014601A802F0B3
:107B100045FC029B0198092BCCBF3722302252FA38
:107B200083F307F8013908F101080028ECD1424637
:107B3000791C304602F046FC28460CB0BDE8F081C6
:107B40000A2AD5D018B12E46DAE70A24FAE73023FC
:107B50008DF82B302E460DF12A074FF00208E6E78C
:107B600010B504460068FFF7D9FD204610BD10B5DA
:107B70000446006808B1FFF7D1FD0023C4E90133D2
:107B8000236010BD38B504460D4600680131FFF78B
:107B9000CDFD10B1C4E90005012038BD10B5036862
:107BA000044623B143688B4201D3012010BD204617
:107BB000FFF7E8FF0028F9D0A368002BF5D1226871
:107BC0001370F2E737B50D46114601920446FFF7F0
:107BD000E5FF019A28B92046FFF7C9FF204603B008
:107BE00030BDA2602946206802F0ECFB2268A36841
:107BF0000021D154F2E7002313B5C0E90033044655
:107C00008360037341B10846019102F089FC019938
:107C100002462046FFF7D6FF204602B010BD38B519
:107C2000054600680C4668B16A688B689A4207D3BB
:107C3000096802F06DFCA368AB600023A36038BD47
:107C4000FFF76CFD23682B6063686B60A368AB6013
:107C50000023C4E90033F1E7884210B5044601D09F
:107C6000FFF7DDFF204610BDF8B59A420F461D46CE
:107C70000C4988BF13461446064684BF2C461D4651
:107C8000FFF7B9FFBB68A3420AD33968AB4294BF80
:107C9000C4EB0302C4EB050221443046FFF792FF18
:107CA0003046F8BD40C40B0010B50446006808B16A
:107CB000FFF7E0FA204610BD10B5064C0023204621
:107CC0002360FFF7CFFA2046034A0449BDE810407D
:107CD00001F0EAB958E6032008E20320A97C0B0072
:107CE000F8B506460D468F180024BD420CD0336807
:107CF00015F8011B9B6830469847031E01DB1C44A6
:107D0000F3E7002C08BF1C462046F8BD13B5044617
:107D1000084659B1019102F003FC23680199DB6820
:107D20000246204602B0BDE81040184702B010BD20
:107D300008B5FFF7EBFF08BD03689B68184738B527
:107D40000D210546FFF7F8FF0A2104462846FFF7F4
:107D5000F3FF204438BD38B50546FFF7D7FF04468A
:107D60002846FFF7ECFF204438BD30B58BB0002328
:107D7000012A8DF8243098BF0A2209AC0D46B1FBC8
:107D8000F2F101FB125303F0FF03092B94BF3033D0
:107D90003733DBB2AA4204F8013DEFD92146FFF7A1
:107DA000B5FF0BB030BD00002DE9F74F55EC104B7F
:107DB00006460F4610EE102A10EE100A2B462946F2
:107DC00001F0ECFE40B153493046FFF79FFF824679
:107DD000504603B0BDE8F08F25F000494E4B4FF000
:107DE000FF322046494601F0D9FE48B94A4B4FF0D0
:107DF000FF322046494601F0B3FE08B94749E3E7A0
:107E0000474B4FF060422046294601F0BDFE08B1C5
:107E10004449D9E7444B4FF060422046294601F0DF
:107E200095FE0028F4D1002200232046294601F0C7
:107E30008DFED0B12D213046FFF77EFF05F10043C6
:107E400082461D463949DFF8EC904FF0000B0020C8
:107E50004FF000085FFA8BF39F4208D942464B4629
:107E600001F02CFD0BF1010BF4E78246EAE7224614
:107E70002B4601F043FA0D46044601F0CDFE804644
:107E800001F078FB02460B462046294601F034FA01
:107E90000A2204460D4630464146FFF766FF8244FB
:107EA000002F95D02249DFF88C903046FFF72EFF47
:107EB0004FF000088244002F8AD042464B462046AD
:107EC000294601F0D1FB04460D4601F07DFEB0F1DC
:107ED000000B1CDA2D213046FFF72EFFCBF10001FD
:107EE00003460A2230460193FFF73FFF019B1844E7
:107EF0008244584601F04EFB02460B462046294676
:107F000001F0FAF9013F04460D46FFB2D3E75946A6
:107F10000023E6E760CF0B00FFFFEF7F64CF0B008D
:107F2000FFFFEF4168CF0B00FFFFEFC10000E03F14
:107F3000F3C80B000000244038B5044610EE100AC8
:107F4000CDB201F039FB41EC100B29462046BDE8CB
:107F50003840FFF729BF2DE9F04186B000AF054654
:107F60000E46381D142114463B60FFF7F7FB13281B
:107F70000ED8391D2846FFF7C9FE04461EB1284613
:107F8000FFF7DDFE044420461837BD46BDE8F0810A
:107F900000F1080323F00703E846ADEB030D22468A
:107FA000411C3B686846FFF7D9FB69462846FFF746
:107FB000ADFE0446C546E1E7002340681A4619466F
:107FC000FFF73CBB014B024A1A6070475CE6032096
:107FD0006CCF0B0008B50020FFF788FB28B1FFF736
:107FE00075FB80F00100C0B208BD0120FCE7000075
:107FF000FAEE087AB4EEE70AF1EE10FA08B511D4F9
:10800000F2EE0C7AB4EEE70AF1EE10FA0ADCDFEDDC
:10801000067A60EE277A17EE900A01F0CBFF034B49
:10802000C3E9000108BD00BF0000614570E6032000
:1080300030B593B0CDE90023194B0446D3E90010C5
:10804000019B521843EB00031648D0E90010521868
:1080500043EB0003CDE9002324220DEB02000021B5
:1080600002F0D8F9002509A96846FFF79FFB162200
:10807000294603A8029502F0CDF902A909A802F049
:1080800055F902A802F04CFA12AB184402A900F804
:10809000415C2046FFF7AFFD204613B030BD00BF66
:1080A00070E6032068E6032010B50020FFF79AF879
:1080B0000446A0B9FFF76EFA012810D12046FFF759
:1080C00081FA60B9FFF786FF10B9FFF7F7FAF9E711
:1080D000FFF780FFBDE810400020FFF783B820467F
:1080E00010BD1FB5FFF7E0FF10220021684602F027
:1080F00091F900216846FFF77DF8009805B05DF81A
:1081000004FB0000024B1A68024B1A60704700BF64
:108110002CE0032060E603202DE9F04F55EC114BD5
:1081200057EC126B85B011EE102A12EE100A2B4696
:1081300039468DED020B8DED004B5BEC13AB01F07E
:10814000FBFC9DED020B38BB51EC100B22462B467D
:1081500001F0D2F85246804689465B46DDE90001CF
:1081600001F0CAF802460B464046494601F07CFA47
:108170002246804689462B463046394601F0BCF8F7
:1081800002460B464046494601F098FB52465B4684
:1081900001F0B4F841EC100B05B0BDE8F08F002100
:1081A000FFF708BA10B50446FBF7FEFF204610BDE6
:1081B0000348044A04490023836000F075BF00BFF0
:1081C00078E6032008E20320A5810B00014B18602C
:1081D000704700BF30E0032008B50B4B43B100F0FF
:1081E0007DF903681B699847002801DDAFF3008023
:1081F000064B43B100F0F4F903681B699847002867
:1082000001DDAFF3008008BD0000000000000000A9
:1082100008B5FFF7E1FFFEF7CDFF014B186008BD81
:10822000D8E703200548064A064908B5121A02F0A5
:10823000C9F8054B054A1A6008BD00BF00F40320C9
:1082400004F40320B8D60B0000F403201E1C279A68
:1082500007B5002300931A466FF07701FFF7C4F9C2
:1082600003B05DF804FB000007B543880A2B08D073
:10827000502B0BD1094B1B684BB103B05DF804EBDD
:108280001847FFF7E5FF03B05DF804FB00230093F8
:108290001A466FF07701FFF7A7F9F4E78CE60320A1
:1082A00010B512480021FFF779FA114B1A68114BEB
:1082B0009A42114B0CBF012200221A7001D0FFF725
:1082C000B1FFFEF767FF044602F0ACF80B4B13B1A9
:1082D0002046AFF3008000210848FFF70FFABDE801
:1082E000104007480021FFF775B900BFCD810B0092
:1082F00000F403201E1C279A88E6032000000000DB
:1083000069820B00704710B51821044600F0D1FEB9
:10831000204610BDF0B5037D062B8DB00E4600F152
:1083200004074FF0000412D000F1080515F8011DF4
:108330000A223046FFF719FDAF42044419D0002C41
:10834000F4D02E213046FFF7F7FC0444EEE72F234C
:108350006A4639460A208DF80040FEF79BFF6846C2
:1083600002F0DEF833680246DB686946304698471B
:10837000044620460DB0F0BD10B5054B0446112251
:1083800040F8043B002102F045F8204610BD00BF34
:1083900094CF0B000346074A10B543F8042B01F1B4
:1083A000100251F8044B43F8044B9142F9D10A787A
:1083B0001A7010BD94CF0B00037D042B04D14068CC
:1083C000003818BF01207047062B07D143683BB91E
:1083D00083682BB9C3681BB90069F1E700207047B7
:1083E0000120704710B59DF8084044EA032343EA92
:1083F000024242EA016104234160037510BD00009E
:1084000007B5064B0360CB7800938B784A780978E0
:10841000FFF7E8FF03B05DF804FB00BF94CF0B004B
:1084200041747047704708B50021007CFFF78AF857
:1084300040EAE07008BD08B50121007CFFF782F832
:1084400040EAE07008BD08B5007CFFF773F820EA49
:10845000E07008BD08B5007CFFF764F820EAE07022
:1084600008BD13B50446007C0191FFF763F80028AE
:10847000019901DC607C20B1207CFFF76BF820EAD9
:10848000E07002B010BD007CFFF76CB810B514218D
:10849000044600F00EFE204610BD000010B54FF45B
:1084A0007A73044608460021C4E90113044B236093
:1084B0000123207463741146FFF724F8204610BD91
:1084C000A8CF0B00007C0022FFF724B810B51422BF
:1084D0000446002101F09EFF204610BD10B5104C4F
:1084E00088B003A8FFF7F2FF2178BFF35B8F11F08C
:1084F000010111D120460191FBF7DEFD019958B130
:1085000003AA0848FFF7CAFF2046FBF7DAFD064A30
:108510000649044800F0C8FD024808B010BD00BF7D
:1085200090E6032094E6032008E2032025840B0054
:10853000FEF718BEFEF70EBE70474174704708B5CF
:10854000007CFEF7F7FE20EAE07008BD08B5007C6D
:10855000FEF7C8FE20EAE07008BD08B5007CFEF713
:10856000D1FE40EAE07008BD08B5007CFEF7C2FE0F
:1085700040EAE07008BD007CFEF7CCBE37B5457C14
:1085800004462DB1207C03B0BDE83040FEF7A2BE0A
:10859000007C0191FEF7CEFE00280199F2DC28460E
:1085A00003B030BD10B51421044600F082FD204612
:1085B00010BD000010B54FF0000C044608461146EF
:1085C0004FF47A72C4E901C2044A22600122207485
:1085D00062741A46FEF776FE204610BDD8CF0B0017
:1085E00013B50E4C2178BFF35B8F11F0010112D14E
:1085F00020460191FBF760FD019960B1084A094BE3
:108600000948FFF7D7FF2046FBF75BFD074A0849FB
:10861000054800F049FD044802B010BDA8E603205B
:10862000ACE6032030E70320B4E7032008E2032090
:1086300039850B007047F8B5064615460C468F186D
:10864000BC4206D0336814F8011B9B68304698473B
:10865000F6E72846F8BD007C0022FEF78BBE007CC2
:108660000021FEF78FBE007C0021FEF793BE007C48
:108670000021FEF797BE007C0021FEF79BBE10B5DF
:108680001421044600F015FD204610BD10B54FF42E
:108690007A73044608460021C4E90113034B2360A2
:1086A00020741146FEF796FE204610BD08D00B0040
:1086B0000023007C1A461946FEF744BE7FB500220F
:1086C0001423CDE90122ADF804300B788DF8083081
:1086D0004B680393CB680493007C0B7A059301A944
:1086E000FEF780FE07B05DF804FB1FB5003B8DF878
:1086F00000104FF06401039118BF012369460192F5
:108700008DF80830FFF7DAFF05B05DF804FB0123B0
:10871000FFF7EBBF007C0022FEF71CBEC9B2FFF7DB
:10872000F9BF007C0022FEF71DBE0121FFF7F9BF53
:1087300010B5044628B101F0A3FE90FBF4F303FB4F
:108740001404204610BD884210B5044603DA081A06
:10875000FFF7EEFF0444204610BD13B503688DF803
:108760000710DC6B01224FF0FF330DF10701A0472A
:1087700002B010BD10B40368DC6B4FF0FF33A446A9
:108780005DF8044B604713B5134602688DF8071077
:10879000D46B0DF107010122A04702B010BD10B546
:1087A0004369B3F88620B3F884309A42044608D06F
:1087B0006369B3F88420511CA3F88410134418791A
:1087C00010BD03681B6998470028F1D14FF0FF30B6
:1087D000F6E7704743691868C043C00F7047704799
:1087E000064B994210B500F10C0405D0084600F084
:1087F00065FC002808BF0024204610BD58CF0B00A0
:1088000010B5AC21044600F054FC204610BDAC214C
:1088100000F04FBC2DE9F0414FF0000886B01C4637
:10882000C0F8048005460E4617464146102202A8AD
:1088300001F0F0FD631C09D04FF47A73B4FBF3F23E
:1088400003FB1244CDE902285C43049468691023B9
:108850000093006802AB41F2050240F6FF71FEF79B
:10886000C9FD002807DAFEF789FF03686B60002066
:1088700006B0BDE8F0816869002300683A463146D9
:10888000FEF7D8FD031EEEDB1846F1E730B587B0E2
:10889000044601AD6846FFF7B3FD0FCD04340FC4A5
:1088A0002B68237007B030BD70B54D69054B044689
:1088B0008C3544F8043B06460FCD0FC42B6823705B
:1088C000304670BD94CF0B002DE9F0439846036805
:1088D00093B00D460024DB6A0646174698472846A3
:1088E0006B46224621460094FEF7FCFB0546002815
:1088F00063D1009B002B4BD05B69002B48D006A8AE
:10890000FFF73AFD009B5C696378022B04D1211DBF
:1089100006A8FFF7BBFF26E00A2B24D11122294627
:1089200001A801F077FDA368002B38D004F10803FB
:108930000DF1040C183418685968624603C20833F4
:10894000A3429446F7D1062301A90CA88DF8143050
:10895000FFF720FD0DF1340CBCE80F0007AC0FC48D
:10896000DCF80030237006A8FFF726FD80B13368DD
:1089700007ADD3F82090124B0C930FCD0DAC0FC464
:108980002B6823703A4643460CA93046C847054633
:108990000098FEF79FFB284613B0BDE8F083E3681C
:1089A000002BC3D14FF6FF70D4F81090FEF77AFC7D
:1089B0008145BBD104F11401AAE72546E8E700BFD1
:1089C00094CF0B0038B543691A68002A054610DABF
:1089D000B3F88620B3F884309A420AD103681B6941
:1089E0009847044628B92B682846DB6A98472046F2
:1089F00038BD0120FCE710B54369B3F88620B3F811
:108A000084309A42044605D06369B3F88420134445
:108A1000187910BD03681B6998470028F4D14FF0FE
:108A2000FF30F6E7F8B543691746B3F88620B3F888
:108A300084309A4205460E4616D06969B1F88430F2
:108A4000B1F88640E41ABC4228BF3C4604332246B3
:108A50001944304601F0B6FC6A69B2F88430234408
:108A6000A2F884302046F8BD03681B6998470028A7
:108A7000E3D14FF0FF34F5E742690023A2F88430D8
:108A80004269A2F8863070472DE9F0411F4603681D
:108A90000C46DB6A8AB0054616469847237DD5F812
:108AA0001480042B0CBF02200A2006220121FEF7AD
:108AB000C9FCC8F800006B691B68002B08DA2B683A
:108AC0002846DB6A0024984720460AB0BDE8F081BA
:108AD0002846FFF7D1FFB7B1002303A9F8B20393EB
:108AE000ADF81030FEF74EFB0028E8D16869062388
:108AF0000093006803AB41F20B0240F6FF71FEF7F2
:108B000079FC0028DBD11C22002103A801F082FCA3
:108B1000237D042B1DD14FF407733046ADF80C3084
:108B2000FEF7C8FBADF80E006068FEF7BBFB0490D3
:108B30006B691C22186803A9FEF76CFC0028BED1E3
:108B400004340FCC6D698C350FC523682B7001245C
:108B5000BAE740F61C233046ADF80C30FEF7AAFB0E
:108B600005AEADF80E00231D04F11407186859680E
:108B7000324603C20833BB421646F7D1D8E700009D
:108B800030B54269B2F886308BB004462BB1B2F8EA
:108B900084209A4201D1FFF76FFF616908680028BD
:108BA00018DBB1F886507F2D14D804310823C5F1A5
:108BB00080022944FEF736FC002813DD6369B3F810
:108BC00086200AB9A3F884206369B3F8862010448C
:108BD000A3F886006369B3F88600B3F88430C01A3E
:108BE0000BB030BDFEF7CAFD03680B2BF2D0FEF7C9
:108BF000C5FD03680B2BEDD020230025CDE9023500
:108C0000FEF7BCFD03680193084B0949009302AAD3
:108C10002B463220FEF7B6FC63691868FEF7F2FBBC
:108C200063694FF0FF321A60D4E700BF2FD00B000A
:108C300028D00B0010B5436904461868002801DBF2
:108C4000FEF7E0FB63694FF0FF321A6060691122A2
:108C500000218C3001F0DEFB2046BDE81040FFF71C
:108C60000BBF10B5002304460160C0F88430883083
:108C7000FFF782FB204610BD73B500234FF47A72D4
:108C8000C0E901320E4A0361026043610446AC2030
:108C90000191FBF700FA051E05F10C0608D001232F
:108CA000C5E90133074B01992B603046FFF7D9FF27
:108CB0002046C4E90565FFF7DFFE02B070BD00BFC6
:108CC00064D00B0048D00B0010B54FF0FF310446C4
:108CD000FFF7D2FF204610BD10B5044600680028FB
:108CE00001DBFEF78FFB204610BD0C30FFF7F4BF11
:108CF000002240681146FEF799BC002240681146E8
:108D0000FEF7B4BC002240681146FEF7BFBC4068C5
:108D10000022FEF7B3BC4068002281F00101FEF79B
:108D20009DBC002340681A461946FEF78FBC0022FE
:108D300040681146FEF76ABC406800220221FEF737
:108D40006DBC002340681A46FEF758BC024B042253
:108D50005A60024A1A607047C8E70320B0D00B007F
:108D6000002340681A46FEF749BC406800220221F1
:108D7000FEF754BC002240681146FEF747BC0022B3
:108D800040681146FEF752BC002340681A46194657
:108D9000FEF754BC002340681A461946FEF756BC3D
:108DA00040680021FEF77ABC40680021FEF77EBCD7
:108DB0004068002281F00101FEF750BC40680022AB
:108DC000FEF75CBC002240681146FEF75FBC002243
:108DD00040681146FEF74ABC2DE9F04395B01446B1
:108DE0000D460746FFF7C8FA00211C220DA8009186
:108DF00001F010FB40230C9320466B460CAA002187
:108E0000FEF770F9044600284BD10246012168683C
:108E1000FEF70CFC0221804622466868FEF706FC3D
:108E2000009E81462146002E3BD0002939D173682F
:108E3000022B03D00A2B11D0F669F4E7B8F1000F2A
:108E4000FAD0716906A8043107ADFFF7D9FA0FCD42
:108E50003C1D0FC42B6823704146EDE7B9F1000FAC
:108E6000EAD07469102201A801F0D4FA06238DF823
:108E7000143001AD04F108031834186859682A4603
:108E800003C20833A3421546F7D101A906A807ADCE
:108E9000FFF780FA0FCD3C1D0FC42B6823704946A5
:108EA000CAE70098FEF716F9384615B0BDE8F0831A
:108EB000024B034A1A6000225A607047D0E7032031
:108EC000ECD00B00232813B502D9002002B010BD4E
:108ED000A0F10B03022B1AD8174C2178BFF35B8F3C
:108EE00011F001010BD120460191FBF7E5F8019942
:108EF00028B11248FEF7A6FC2046FBF7E2F80F4B1C
:108F00001878FEF7D7FA0028DFD10120DEE7012824
:108F100009D800F0A1F80021007CFEF753FA80F098
:108F20000100C0B2D2E709380128EED8FFF758FB9C
:108F3000007CFEF7F7F9F2E734E6032038E6032079
:108F4000232838B504460D460AD8FF2908D0FFF774
:108F5000B9FF28B129462046BDE83840FEF7DAB807
:108F600038BD38B504460D46FEF7DCF8FF2810D0B2
:108F7000062804D84D2323FA00F0C30709D420465D
:108F8000FFF7A0FF28B129462046BDE83840FEF78C
:108F9000D1B838BD10B50446FEF7C4F8031FDBB2E4
:108FA000012B08D92046FFF78DFF20B12046BDE8F0
:108FB0001040FEF7C7B8002010BD0D2810B50446BC
:108FC0009CBF0E34A4B22046FFF77CFF50B10321B2
:108FD0002046FEF797F8032804D12046BDE810404C
:108FE000FEF7C8B8002010BD2DE9F04190461F469D
:108FF000072406460D46C4F10701B8F1000F12D14F
:1090000047FA01F101F001013046FFF7AAFF012103
:109010002846FFF7A6FF00212846FFF7A2FF013CE4
:10902000E9D2BDE8F08147FA04F1EBE738B5202535
:10903000142304460360856005610649284600F054
:109040003AF804496060284600F035F8E0602046B0
:1090500038BD00BF20D10B0030B50F4D2978BFF3CC
:109060005B8F11F0010487B013D12846FBF724F879
:1090700078B101A8FFF7DAFF01AA21460748FFF7F8
:1090800005FB2846FBF71DF8054A0649034800F092
:109090000BF8024807B030BDDCE70320E0E703200F
:1090A00008E2032035860B000B460146184601F006
:1090B00067B9FAF7F4BFFAF7F0BF0000014900F012
:1090C000F9B800BF3CD10B007FB500241023CDE9D7
:1090D0000234036815469E6912686B46CDE9004468
:1090E000B0479DF8043003F00603062B03BF009B36
:1090F0002B600120204604B070BD0098904214BF40
:10910000012006207047000010B5034B03600446A1
:1091100000F0CDF8204610BD7CD10B0010B5044600
:10912000FFF7F2FF20460821FFF7C3FF204610BDDE
:109130002DE9F0411F46DDE90834DDF81880984537
:109140000646154607D1079900F0B4F818B16571C5
:109150000020BDE8F0813946304600F0ABF8002829
:10916000F6D00123C4F800802571A371F0E738B56B
:1091700015461C4600F09EF820B10823E360062344
:109180002560237138BD73B505460C4601921E4615
:1091900000F090F850B9032E08D82368019A5B6953
:1091A0002946204602B0BDE87040184702B070BDA5
:1091B00010B5034B03600446FFF7A6FF204610BD21
:1091C000DCD10B0010B50446FFF7F2FF20460C215E
:1091D000FFF76FFF204610BDF7B5089F9742054681
:1091E0000E4614460AD0A86802680897156A3146E8
:1091F0002246AC4603B0BDE8F040604719460193F3
:1092000000F058F8019B0028EDD0062003B0F0BD17
:109210002DE9F14F0D461946DDE90A4BDDE90CA6B3
:1092200081461746984600F045F890B1002D34600D
:10923000377109DB61198A450CBF06210121B17123
:10924000002001B0BDE8F08F0235F9D10123B371E0
:10925000F6E7544506D15946484600F02BF808B1C8
:109260007771EDE7D9F808000368CDE90CA6CDE9E0
:109270000A4BDC693A4643462946A44601B0BDE89C
:10928000F04F60472DE9F04107460C4615461E4653
:10929000FFF76DFF48B9B86803689F692A463346EF
:1092A0002146BC46BDE8F0416047BDE8F08170470B
:1092B00000207047814208B50ED0406803782A2B01
:1092C0000CD049680B782A2B08BF013101F016F940
:1092D000B0FA80F0400908BD0120FCE70020FAE761
:1092E0009FED010B704700BF000000000000F87FF9
:1092F00081F0004102E000BF83F0004330B54FEA47
:1093000041044FEA430594EA050F08BF90EA020FB3
:109310001FBF54EA000C55EA020C7FEA645C7FEA46
:10932000655C00F0E2804FEA5454D4EB5555B8BF69
:109330006D420CDD2C4480EA020281EA030382EADA
:10934000000083EA010180EA020281EA0303362D6C
:1093500088BF30BD11F0004F4FEA01314FF4801C3F
:109360004CEA113102D0404261EB410113F0004F51
:109370004FEA03334CEA133302D0524263EB430308
:1093800094EA050F00F0A780A4F10104D5F1200EA6
:109390000DDB02FA0EFC22FA05F2801841F1000101
:1093A00003FA0EF2801843FA05F359410EE0A5F1D5
:1093B00020050EF1200E012A03FA0EFC28BF4CF006
:1093C000020C43FA05F3C01851EBE37101F00045BC
:1093D00007D54FF0000EDCF1000C7EEB00006EEBC9
:1093E0000101B1F5801F1BD3B1F5001F0CD3490853
:1093F0005FEA30004FEA3C0C04F101044FEA4452AA
:1094000012F5800F80F09A80BCF1004F08BF5FEA30
:10941000500C50F1000041EB045141EA050130BD10
:109420005FEA4C0C404141EB0101013C28BFB1F522
:10943000801FE9D291F0000F04BF01460020B1FA6D
:1094400081F308BF2033A3F10B03B3F120020CDA40
:109450000C3208DD02F1140CC2F10C0201FA0CF01E
:1094600021FA02F10CE002F11402D8BFC2F1200C83
:1094700001FA02F120FA0CFCDCBF41EA0C01904039
:10948000E41AA2BF01EB0451294330BD6FEA040482
:109490001F3C1CDA0C340EDC04F11404C4F120026D
:1094A00020FA04F001FA02F340EA030021FA04F37F
:1094B00045EA030130BDC4F10C04C4F1200220FAD6
:1094C00002F001FA04F340EA0300294630BD21FA14
:1094D00004F0294630BD94F0000F83F4801306BFDA
:1094E00081F480110134013D4EE77FEA645C18BFCE
:1094F0007FEA655C29D094EA050F08BF90EA020F65
:1095000005D054EA000C04BF1946104630BD91EA5C
:10951000030F1EBF0021002030BD5FEA545C05D15F
:109520004000494128BF41F0004130BD14F580049E
:109530003CBF01F5801130BD01F0004545F0FE4112
:1095400041F470014FF0000030BD7FEA645C1ABF47
:10955000194610467FEA655C1CBF0B46024650EA7E
:10956000013406BF52EA033591EA030F41F40021AA
:1095700030BD00BF90F0000F04BF0021704730B530
:109580004FF4806404F132044FF000054FF0000105
:1095900050E700BF90F0000F04BF0021704730B5C6
:1095A0004FF4806404F1320410F0004548BF40429B
:1095B0004FF000013EE700BF42004FEAE2014FEAF0
:1095C00031014FEA02701FBF12F07F4393F07F4FCB
:1095D00081F06051704732F07F4208BF704793F0CE
:1095E0007F4F04BF41F40021704730B54FF46074E1
:1095F00001F0004521F000411CE700BF50EA0102E4
:1096000008BF704730B54FF000050AE050EA01028C
:1096100008BF704730B511F0004502D5404261EBFC
:1096200041014FF4806404F132045FEA915C3FF43D
:10963000D8AE4FF003025FEADC0C18BF03325FEADA
:10964000DC0C18BF033202EBDC02C2F1200300FA8B
:1096500003FC20FA02F001FA03FE40EA0E0021FAB0
:1096600002F11444BDE600BF70B54FF0FF0C4CF49E
:10967000E06C1CEA11541DBF1CEA135594EA0C0F50
:1096800095EA0C0F00F0DEF82C4481EA030621EA8B
:109690004C5123EA4C5350EA013518BF52EA0335C6
:1096A00041F4801143F4801338D0A0FB02CE4FF078
:1096B0000005E1FB02E506F00042E0FB03E54FF0A8
:1096C0000006E1FB03569CF0000F18BF4EF0010EA0
:1096D000A4F1FF04B6F5007F64F5407404D25FEA9C
:1096E0004E0E6D4146EB060642EAC62141EA55514F
:1096F0004FEAC52040EA5E504FEACE2EB4F1FD0C91
:1097000088BFBCF5E06F1ED8BEF1004F08BF5FEA0E
:10971000500E50F1000041EB045170BD06F00046C0
:1097200046EA010140EA020081EA0301B4EB5C046D
:10973000C2BFD4EB0C0541EA045170BD41F4801165
:109740004FF0000E013C00F3AB8014F1360FDEBF8A
:10975000002001F0004170BDC4F10004203C35DA66
:109760000C341BDC04F11404C4F1200500FA05F3E9
:1097700020FA04F001FA05F240EA020001F000428A
:1097800021F0004110EBD37021FA04F642EB060100
:109790005EEA430E08BF20EAD37070BDC4F10C042A
:1097A000C4F1200500FA04F320FA05F001FA04F2EE
:1097B00040EA020001F0004110EBD37041F10001DA
:1097C0005EEA430E08BF20EAD37070BDC4F12005E5
:1097D00000FA05F24EEA020E20FA04F301FA05F24D
:1097E00043EA020321FA04F001F0004121FA04F2F5
:1097F00020EA020000EBD3705EEA430E08BF20EAC5
:10980000D37070BD94F0000F0FD101F000464000FE
:1098100041EB010111F4801F08BF013CF7D041EA80
:10982000060195F0000F18BF704703F00046520084
:1098300043EB030313F4801F08BF013DF7D043EA55
:109840000603704794EA0C0F0CEA135518BF95EA0B
:109850000C0F0CD050EA410618BF52EA4306D1D192
:1098600081EA030101F000414FF0000070BD50EAB1
:10987000410606BF1046194652EA430619D094EA3B
:109880000C0F02D150EA013613D195EA0C0F05D125
:1098900052EA03361CBF104619460AD181EA030179
:1098A00001F0004141F0FE4141F470014FF0000031
:1098B00070BD41F0FE4141F4780170BD70B54FF0CC
:1098C000FF0C4CF4E06C1CEA11541DBF1CEA13554C
:1098D00094EA0C0F95EA0C0F00F0A7F8A4EB05042E
:1098E00081EA030E52EA03354FEA013100F0888025
:1098F0004FEA03334FF0805545EA131343EA1263EE
:109900004FEA022245EA111545EA10654FEA0026A2
:109910000EF000419D4208BF964244F1FD0404F55B
:10992000407402D25B084FEA3202B61A65EB0305B7
:109930005B084FEA32024FF480104FF4002CB6EB74
:10994000020E75EB030E22BFB61A754640EA0C00F4
:109950005B084FEA3202B6EB020E75EB030E22BF34
:10996000B61A754640EA5C005B084FEA3202B6EB75
:10997000020E75EB030E22BFB61A754640EA9C0034
:109980005B084FEA3202B6EB020E75EB030E22BF04
:10999000B61A754640EADC0055EA060E18D04FEAC2
:1099A000051545EA16754FEA06164FEAC30343EA62
:1099B00052734FEAC2025FEA1C1CC0D111F4801F2F
:1099C0000BD141EA00014FF000004FF0004CB6E728
:1099D00011F4801F04BF01430020B4F1FD0C88BFC7
:1099E000BCF5E06F3FF6AFAEB5EB030C04BFB6EBD2
:1099F000020C5FEA500C50F1000041EB045170BDC5
:109A00000EF0004E4EEA113114EB5C04C2BFD4EBF1
:109A10000C0541EA045170BD41F480114FF0000E75
:109A2000013C90E645EA060E8DE60CEA135594EAF1
:109A30000C0F08BF95EA0C0F3FF43BAF94EA0C0FF4
:109A40000AD150EA01347FF434AF95EA0C0F7FF469
:109A500025AF104619462CE795EA0C0F06D152EABD
:109A600003353FF4FDAE1046194622E750EA4106A1
:109A700018BF52EA43067FF4C5AE50EA41047FF4B2
:109A80000DAF52EA43057FF4EBAE12E74FF0FF3C17
:109A900006E000BF4FF0010C02E000BF4FF0010CE8
:109AA0004DF804CD4FEA410C7FEA6C5C4FEA430C61
:109AB00018BF7FEA6C5C1BD001B050EA410C0CBFB0
:109AC00052EA430C91EA030F02BF90EA020F002012
:109AD000704710F1000F91EA030F58BF994208BF79
