:02000002B0004C
:1040000000400B0094620B00000006000C0005024B
:0840100004011F0C0000000078
:044018009C5F0B009E
:1040200009480A49884208B505D0094A824202D0A7
:10403000121A01F067FF0748074A0021121A01F01F
:104040006FFF014808BD00BF98E5032004620B0024
:1040500000E6032000E60320F0E7032070B5074EDA
:10406000074C00F0AFFFA41BA4080025A54200D117
:1040700070BD56F8043B98470135F7E7D4610B0053
:10408000F8610B0000F029B808B500F061F8BDE850
:10409000084000F04FBF00F0C1BD00F0C7BD007880
:1040A000B0FA80F04009704701230370704710B5E3
:1040B0000446006808B100F0B9FD204610BD0EB4FA
:1040C00003B503AB002153F8042B019300F0AFFEBE
:1040D00002B05DF804EB03B0704708B501F07AF860
:1040E0004FF4165101F06AF80021132001F084FA10
:1040F000BDE808400021112001F07EBA7FB51248CA
:1041000000F088FBF0B101F065F804460E4800F0BD
:10411000A4FB0D4810EE106A00F0A2FB304610EE32
:10412000105A01F027FC02460B462846CDE902232F
:1041300001F020FCDDE90223CDE90001034920461E
:10414000FFF7BDFF04B070BD10E60320B05F0B00A9
:10415000FFF7D4BF10B500220A4C0B48122100F023
:104160006EFA0023C4E900330220A3F58033A36074
:1041700000F0C8FC2046054A0549BDE8104001F0A2
:104180008BBA00BF04E6032010E6032000E60320FC
:10419000AF400B0010B503682F2B044604D9074A23
:1041A00000210A2000F0A6FC23681F2B83BF03F028
:1041B0001F03034823604FF0A04010BD05490B00CA
:1041C00000030050002100F07DBB012100F07ABB0C
:1041D0002DE9F3410446204F204E01F025F82588B3
:1041E0003B78BFF35B8F13F0010F09D13846FFF71F
:1041F00056FF28B100F05EFB30603846FFF754FFF1
:1042000033682D015B5D4FEA43183B78BFF35B8F4A
:10421000DB0709D41048FFF742FF28B100F04AFB42
:1042200030600D48FFF740FF33681D4401A86B78EC
:1042300003F01F0343EA08030193FFF7ABFF019A62
:1042400001239340C0F808352088FFF7BEFF02B075
:10425000BDE8F04100F0EABF3CE6032040E6032061
:10426000F7B51B4D1B4E2B78BFF35B8F13F0010F7F
:10427000044609D12846FFF712FF28B100F01AFBC7
:1042800030602846FFF710FF336824011B5D5F0193
:104290002B78BFF35B8FDB0709D40D48FFF7FFFED8
:1042A00028B100F007FB30600948FFF7FDFE3068D9
:1042B000044401A8637803F01F033B430193FFF715
:1042C00069FF019A01239340C0F80C3503B0F0BD9B
:1042D0003CE6032040E603202DE9F341204E214F28
:1042E0003378BFF35B8F13F0010F054609D13046D9
:1042F000FFF7D5FE28B100F0DDFA38603046FFF751
:10430000D3FE3B682D015C5D3378BFF35B8FDB0729
:104310004FEA441809D41248FFF7C1FE28B100F053
:10432000C9FA38600E48FFF7BFFE3868054401A897
:104330006C7804F01F0444EA08040194FFF72AFF94
:10434000D0F81035019401A8FFF724FF019BD0F8A5
:104350001005D84000F0010002B0BDE8F08100BFB8
:104360003CE6032040E6032038B504460D462846C7
:10437000002101F041F92580204638BD70B5054681
:1043800000F052FF2888FFF71DFF00F04FFF7D244B
:10439000013C14F0FF042BD0022000F0B3FA28886F
:1043A000FFF79AFF0028F3D000F03EFF2888FFF7C0
:1043B00057FF2888FFF709FF00F038FF4FF4F0702F
:1043C00000F0A0FA00F0AEFA06462888FFF7FAFEE1
:1043D000462000F097FA2888FFF77EFFB0FA80F4B5
:1043E000304600F0A7FA4FF4CD70640900F08AFA65
:1043F000204670BD38B5CB07044616D500F092FABA
:1044000005462088FFF72CFF2088FFF7DEFE0120FD
:1044100000F078FA2088FFF7D5FE284600F08AFAE7
:104420003B20BDE8384000F06DBA00F07BFA05464D
:104430002088FFF715FF2088FFF7C7FE412000F016
:1044400061FA2088FFF7BEFE284600F073FA0520C7
:10445000E7E738B5044600F065FA05462088FFF71F
:10446000FFFE2088FFF7B1FE012000F04BFA208804
:10447000FFF7A8FE0D2000F045FA2088FFF72CFF7B
:104480000446284600F056FA2E2000F03BFA20465B
:1044900038BDF7B50F46154608260124274214BF3C
:1044A0000121002101906400FFF7A4FF013E019863
:1044B000E4B2F3D125B103B0BDE8F040FFF788BE08
:1044C00003B0F0BDF8B5074608260025012438469C
:1044D000FFF7BFFF00B125436400013EE4B2F6D10F
:1044E0002846F8BD70B500220C4655210646FFF758
:1044F000D0FF651E073415F8011F00223046FFF774
:10450000C8FFA542F7D170BD002343810373C0F8F3
:104510000230C0F8063070472DE9F84F057B04469D
:1045200088466DB1002060812073A31C08F1FF381C
:104530000A3413F8012B08F8012F9C42F9D104E04A
:10454000FFF71CFF18B960812073BDE8F88F2A4679
:10455000F0212046FFF79DFF0127AA463E46204650
:10456000FFF777FF814683462046FFF772FFB9F1D8
:10457000010F0FD1012817D1402ED3D984F80AA0FA
:10458000BAF1000F01D101232373A378002BC9D006
:104590000120CAE7814504EB050322D1A27AB24289
:1045A00018D99A78174216D062194FF0010B9378F8
:1045B0003B439370594620467F00FFF71BFF0136AF
:1045C00017F0FF07F6B2CAD10135EDB2082DD3D0EE
:1045D0000127C4E7E8D0082E00D8E6724FF0000BA0
:1045E000B2469A7822EA07029A70E3E730B50246AB
:1045F000014400208A4213D012F8015B082480EAAB
:10460000050313F0010F4FEA50001CBF80F08C032C
:10461000D8B2631E13F0FF044FEA5505EFD1E9E766
:1046200030BD00230022438242618361C361036283
:10463000436280F8283080F829304385704738B5C8
:1046400004461546FFF790FE4FF47A732046A57393
:104650002382FFF7E6FF38BD2DE9F0410B68836147
:104660004B68C3610B78262B044600F1180560D017
:1046700008D8102B0AD0222B59D0002084F829000A
:10468000BDE8F081282BF8D1022300E0012384F853
:1046900029302046FFF772FE29462046FFF722FF09
:1046A000A27B44212046FFF7F4FE208A00F008FC9C
:1046B0002046FFF763FE29462046FFF713FF00223E
:1046C000B8212046FFF7E5FE002211462046FFF7FD
:1046D000E0FE2046FFF752FE29462046FFF702FF84
:1046E0000022BE212046FFF7D4FE94F82930042B87
:1046F00004D1002211462046FFF7CBFE04F120052D
:1047000004F129072E462046FFF7DCFE05F8010BD1
:10471000BD42F8D108213046FFF768FF94F82830F1
:10472000834208D0012384F82B300020A8E703231C
:10473000ADE70423ABE7238C638294F8293094F827
:104740002150042B4DD194F8228007EE908AF8EE88
:10475000677A45EA0823ED08638217EE900A84F829
:10476000215001F007F907EE905AF8EE677A0646F5
:1047700017EE900A0F4601F0FDF8254B002201F0DC
:1047800051F918F0800F02460B4625D030463946C5
:1047900000F090FF01F058FB606115E094F82420D0
:1047A000B4F9123012F0600202D123F007032CE0BA
:1047B000202A0BD0402A0CD0B4F9123007EE903AE0
:1047C000FAEECE7AC4ED057A012059E723F003030F
:1047D0001BE023F0010318E03046394600F06CFF7F
:1047E000D8E7032BF0D8012BD8D8EDD1B4F912308B
:1047F00094F82720DB00102A6382DDD194F826206C
:1048000023F00F03C2F10C0213446382D4E700BF0C
:104810000000A03F38B500F118052946FFF701FF59
:104820000446FFF779FE38B9012384F82A30204680
:10483000FFF76AFE002038BD07212846FFF7D6FEA5
:10484000E37F834203D0012384F82B30F2E729462B
:104850002046BDE83840FFF7FFBE90ED050A7047DF
:1048600008B5406901F086F808A3D3E9002301F0F8
:10487000D9F8054B002200F01FFF01F0E5FA00EE29
:10488000100A08BDAFF3008000004040CDCCCCCC76
:10489000CCCCFC3F08B5024B1B689B68019308BD5C
:1048A0006802030008B5024B1B68DB68019308BD72
:1048B0006802030008B5024B1B681B68019308BD22
:1048C0002C02030008B5024B1B689B68019308BDCE
:1048D0002C02030008B5024B1B681B6A019308BD3C
:1048E0002C02030008B5024B1B685B6A019308BDEC
:1048F0002C02030008B5024B1B685B68019308BDDE
:104900001802030008B5024B1B68DB68019308BD61
:104910001802030008B5024B1B685B69019308BDD0
:104920001802030008B5024B1B689B6B019308BD7E
:104930001802030008B5024B1B68DB6B019308BD2E
:104940001802030008B5024B1B685B6C019308BD9D
:104950004802030008B5024B1B689B6C019308BD1D
:104960004802030008B5024B1B685B69019308BD50
:104970006402030008B5024B1B681B68019308BD65
:104980003C02030008B5024B1B68DB68019308BDBD
:104990003C02030008B5024B1B681B69019308BD6C
:1049A0003C02030008B5024B1B685B69019308BD1C
:1049B0003C02030008B5024B1B689B69019308BDCC
:1049C0003C02030008B5024B1B68DB69019308BD7C
:1049D0003C02030008B5024B1B681B6A019308BD2B
:1049E0003C02030008B5024B1B689B6A019308BD9B
:1049F0003C02030008B5024B1B681B6A019308BD0B
:104A00002802030008B5024B1B685B6A019308BDCE
:104A10002802030008B5024B1B689B6A019308BD7E
:104A20002802030008B5024B1B68DB6A019308BD2E
:104A30002802030008B5024B1B681B6B019308BDDD
:104A40002802030008B5024B1B685B6B019308BD8D
:104A50002802030008B5024B1B681B6C019308BDBC
:104A60002802030008B5024B1B68DB69019308BDEF
:104A70003002030008B5024B1B681B6A019308BD96
:104A80003002030008B5024B1B681B68019308BD88
:104A90004C02030008B5024B1B685B68019308BD1C
:104AA0004C02030008B5024B1B681B69019308BD4B
:104AB0004C02030008B5024B1B685B69019308BDFB
:104AC0004C02030008B5024B1B689B69019308BDAB
:104AD0004C02030008B5024B1B68DB69019308BD5B
:104AE0004C02030008B5024B1B681B6A019308BD0A
:104AF0004C02030008B5024B1B685B6B019308BDB9
:104B00006002030008B5024B1B685B68019308BD97
:104B10002002030008B5024B1B685B69019308BDC6
:104B20002002030008B5034B1B68D3F888300193BB
:104B300008BD00002002030008B5034B1B68D3F832
:104B40009430019308BD00002002030008B5024B19
:104B50001B685B68019308BD4002030008B5024B67
:104B60001B689B68019308BD4002030008B5024B17
:104B70001B68DB68019308BD4002030008B5024BC7
:104B80001B681B69019308BD4002030008B5024B76
:104B90001B685B69019308BD4002030008B5024B26
:104BA0001B689B69019308BD4002030008B5024BD6
:104BB0001B68DB69019308BD4002030008B5024B86
:104BC0001B681B6A019308BD4002030008B5024B35
:104BD0001B681B6B019308BD4002030008B5024B24
:104BE0001B685B6B019308BD4002030008B5024BD4
:104BF0001B681B6C019308BD4002030008B5024B03
:104C00001B685B6C019308BD4002030008B5024BB2
:104C10001B68DB6B019308BD4402030008B5024B1F
:104C20001B681B68019308BD1C02030008B5024BFA
:104C30001B685B68019308BD1C02030008B5024BAA
:104C40001B685B6A019308BD1C02030008B5024B98
:104C50001B681B6C019308BD1C02030008B5024BC6
:104C60001B685B6C019308BD1C02030000224068B6
:104C70001146FFF7A3BF002240681146FFF7AEBF01
:104C800040680022FFF7A2BF4068002281F00101C6
:104C9000FFF78CBF002340681A461946FFF77EBF16
:104CA000002340681A461946FFF770BF002240688B
:104CB0001146FFF763BF002240681146FFF74EBF61
:104CC000406800220221FFF751BF002340681A46C6
:104CD000FFF73CBF024B03225A60024A1A6070473A
:104CE00044E60320D45F0B0010B50446084621704B
:104CF000FFF7B8FE00236360204610BD10B5094BD6
:104D0000094C02221A600020084BA360C4E900008D
:104D1000FFF7F8FE2046064A0649BDE8104000F0BD
:104D2000BBBC00BF58E603204CE603200000FFFF99
:104D300000E60320AF400B0010B50446006808B140
:104D4000FFF708FE204610BD10B58368044613B176
:104D5000032201469847204610BD000010B5064CBE
:104D6000002320462360FFF7EDFD2046034A044957
:104D7000BDE8104000F090BC5CE6032000E6032094
:104D8000394D0B00F8B506460D468F180024BD427C
:104D90000CD0336815F8011B9B6830469847031EFA
:104DA00001DB1C44F3E7002C08BF1C462046F8BD7D
:104DB00013B50446084659B1019101F0E7F823689C
:104DC0000199DB680246204602B0BDE81040184752
:104DD00002B010BD03689B68184738B50D21054621
:104DE000FFF7F8FF0A2104462846FFF7F3FF2044A7
:104DF00038BD30B58BB00023012A8DF8243098BF20
:104E00000A2209AC0D46B1FBF2F101FB125303F08B
:104E1000FF03092B94BF30333733DBB2AA4204F8C7
:104E2000013DEFD92146FFF7C3FF0BB030BD2DE99F
:104E3000F04186B000AF05460E46381D14211446D9
:104E40003B60FFF7FBFE13280ED8391D2846FFF7FD
:104E5000AFFF04461EB12846FFF7BFFF04442046BB
:104E60001837BD46BDE8F08100F1080323F00703C1
:104E7000E846ADEB030D2246411C3B686846FFF750
:104E8000DDFE69462846FFF793FF0446C546E1E785
:104E9000002340681A461946FFF778BE014B024AC4
:104EA0001A60704760E6032008600B00024B1A6826
:104EB000024B1A60704700BF98E5032064E60320A8
:104EC0000021FFF727BE10B50446FFF73DFF20463F
:104ED00010BD00000348044A04490023836000F029
:104EE000DBBB00BF68E6032000E60320C74E0B00D3
:104EF000014B1860704700BF9CE5032008B50B4BC1
:104F000043B100F067F903681B699847002801DD89
:104F1000AFF30080064B43B100F0DEF903681B6974
:104F20009847002801DDAFF3008008BD00000000B5
:104F30000000000008B5FFF7E1FFFFF7EBFC014BB5
:104F4000186008BDD4E703200548064A064908B59D
:104F5000121A00F0D7FF054B054A1A6008BD00BFC2
:104F600000F4032004F4032000620B0000F403208B
:104F70001E1C279A07B5002300931A466FF077018D
:104F8000FFF7DAFD03B05DF804FB000007B54388C6
:104F90000A2B08D0502B0BD1094B1B684BB103B027
:104FA0005DF804EB1847FFF7E5FF03B05DF804FB7D
:104FB000002300931A466FF07701FFF7BDFDF4E779
:104FC0007CE6032010B512480021FFF747FE114B85
:104FD0001A68114B9A42114B0CBF012200221A7021
:104FE00001D0FFF7B1FFFFF785FC044600F0A0FFFA
:104FF0000B4B13B12046AFF3008000210848FFF7A8
:1050000005FEBDE8104007480021FFF78BBD00BF3B
:10501000F14E0B0000F403201E1C279A78E60320B3
:10502000000000008D4F0B00704710B5182104469A
:1050300000F037FB204610BDF0B5037D062B8DB088
:105040000E4600F104074FF0000412D000F10805ED
:1050500015F8011D0A223046FFF7CBFEAF4204448B
:1050600019D0002CF4D02E213046FFF7B3FE0444B3
:10507000EEE72F236A4639460A208DF80040FFF7F5
:1050800071FC684600F082FF33680246DB686946BF
:1050900030469847044620460DB0F0BD10B5054B8C
:1050A0000446112240F8043B002100F039FF20465D
:1050B00010BD00BF30600B000346074A10B543F82F
:1050C000042B01F1100251F8044B43F8044B9142B8
:1050D000F9D10A781A7010BD30600B0010B59DF838
:1050E000084044EA032343EA024242EA01610423FE
:1050F0004160037510BD000007B5064B0360CB7817
:1051000000938B784A780978FFF7E8FF03B05DF8E1
:1051100004FB00BF30600B0041747047704708B556
:105120000021007CFFF7CEFC40EAE07008BD08B526
:105130000121007CFFF7C6FC40EAE07008BD08B51D
:10514000007CFFF7B7FC20EAE07008BD08B5007CE2
:10515000FFF7A8FC20EAE07008BD13B50446007C08
:105160000191FFF7A7FC0028019901DC607C20B1C8
:10517000207CFFF7AFFC20EAE07002B010BD007C9D
:10518000FFF7B0BC10B51421044600F08AFA20469F
:1051900010BD000010B54FF47A7304460846002194
:1051A000C4E90113044B2360012320746374114686
:1051B000FFF768FC204610BD44600B00007C002215
:1051C000FFF768BC10B514220446002100F0A8FEC9
:1051D000204610BD10B5104C88B003A8FFF7F2FFB1
:1051E0002178BFF35B8F11F0010111D120460191AD
:1051F000FEF755FF019958B103AA0848FFF7CAFF07
:105200002046FEF751FF064A0649044800F044FADA
:10521000024808B010BD00BF80E6032084E60320EA
:1052200000E603201D510B00FFF75CBBFFF752BBEC
:1052300070474174704708B5007CFFF7D3FB20EA44
:10524000E07008BD08B5007CFFF7A4FB20EAE07021
:1052500008BD08B5007CFFF7ADFB40EAE07008BD73
:1052600008B5007CFFF79EFB40EAE07008BD007CBB
:10527000FFF7A8BB37B5457C04462DB1207C03B0B1
:10528000BDE83040FFF77EBB007C0191FFF7AAFB31
:1052900000280199F2DC284603B030BD10B5142176
:1052A000044600F0FEF9204610BD000010B54FF096
:1052B000000C0446084611464FF47A72C4E901C254
:1052C000044A22600122207462741A46FFF752FBDE
:1052D000204610BD74600B0013B50E4C2178BFF34F
:1052E0005B8F11F0010112D120460191FEF7D7FE2C
:1052F000019960B1084A094B0948FFF7D7FF2046DA
:10530000FEF7D2FE074A0849054800F0C5F90448EF
:1053100002B010BD98E603209CE6032020E703209E
:10532000A4E7032000E6032031520B007047F8B5D4
:10533000064615460C468F18BC4206D0336814F852
:10534000011B9B6830469847F6E72846F8BD007C6D
:105350000022FFF74FBB007C0021FFF753BB007C0E
:105360000021FFF757BB007C0021FFF75BBB007CEF
:105370000021FFF75FBB10B51421044600F091F93E
:10538000204610BD10B54FF47A730446084600213C
:10539000C4E90113034B236020741146FFF75AFB45
:1053A000204610BDA4600B00002240681146FFF7A4
:1053B000E5BB002240681146FFF700BC00224068B0
:1053C0001146FFF70BBC40680022FFF7FFBB4068A7
:1053D000002281F00101FFF7E9BB002340681A4673
:1053E0001946FFF7DBBB002240681146FFF7B6BB4A
:1053F000406800220221FFF7B9BB002340681A462B
:10540000FFF7A4BB024B04225A60024A1A6070479D
:10541000B8E70320CC600B00002340681A46FFF772
:1054200095BB406800220221FFF7A0BB0022406824
:105430001146FFF793BB002240681146FFF79EBB61
:10544000002340681A461946FFF7A0BB00234068B6
:105450001A461946FFF7A2BB40680021FFF7C6BBFA
:1054600040680021FFF7CABB4068002281F00101BB
:10547000FFF79CBB40680022FFF7A8BB00224068F2
:105480001146FFF7ABBB002240681146FFF796BB01
:105490002DE9F04395B014460D460746FFF7FEFD93
:1054A00000211C220DA8009100F03AFD40230C932E
:1054B00020466B460CAA0021FFF7F4F904460028A9
:1054C0004BD1024601216868FFF758FB0221804654
:1054D00022466868FFF752FB009E81462146002E57
:1054E0003BD0002939D17368022B03D00A2B11D08D
:1054F000F669F4E7B8F1000FFAD0716906A8043133
:1055000007ADFFF7F9FD0FCD3C1D0FC42B682370CD
:105510004146EDE7B9F1000FEAD07469102201A805
:1055200000F0FEFC06238DF8143001AD04F10803F1
:105530001834186859682A4603C20833A34215462E
:10554000F7D101A906A807ADFFF7B6FD0FCD3C1DA9
:105550000FC42B6823704946CAE70098FFF79AF9F1
:10556000384615B0BDE8F083024B034A1A600022AA
:105570005A607047C0E7032008610B00232813B569
:1055800002D9002002B010BDA0F10B03022B1AD8E3
:10559000174C2178BFF35B8F11F001010BD120462E
:1055A0000191FEF77CFD019928B11248FFF79CFBA1
:1055B0002046FEF779FD0F4B1878FFF75BFA0028BD
:1055C000DFD10120DEE7012809D800F03DF80021F5
:1055D000007CFFF737FA80F00100C0B2D2E709384B
:1055E0000128EED8FFF778FE007CFFF7F3F9F2E729
:1055F000C8E70320CCE70320232838B504460D462E
:105600000AD8FF2908D0FFF7B9FF28B1294620465C
:10561000BDE83840FFF756B938BD000038B5202541
:10562000142304460360856005610649284600F09E
:105630003AF804496060284600F035F8E0602046FA
:1056400038BD00BF3C610B0030B50F4D2978BFF36A
:105650005B8F11F0010487B013D12846FEF71FFDC0
:1056600078B101A8FFF7DAFF01AA21460748FFF742
:1056700089FE2846FEF718FD054A0649034800F052
:105680000BF8024807B030BDD8E70320DCE7032061
:1056900000E603202D530B000B460146184600F090
:1056A00023BCFEF7FABCFEF7F6BC000081F0004117
:1056B00002E000BF83F0004330B54FEA41044FEAF7
:1056C000430594EA050F08BF90EA020F1FBF54EA92
:1056D000000C55EA020C7FEA645C7FEA655C00F02E
:1056E000E2804FEA5454D4EB5555B8BF6D420CDDFF
:1056F0002C4480EA020281EA030382EA000083EA82
:10570000010180EA020281EA0303362D88BF30BD21
:1057100011F0004F4FEA01314FF4801C4CEA113177
:1057200002D0404261EB410113F0004F4FEA0333D6
:105730004CEA133302D0524263EB430394EA050F61
:1057400000F0A780A4F10104D5F1200E0DDB02FAD0
:105750000EFC22FA05F2801841F1000103FA0EF264
:10576000801843FA05F359410EE0A5F120050EF12A
:10577000200E012A03FA0EFC28BF4CF0020C43FA5B
:1057800005F3C01851EBE37101F0004507D54FF068
:10579000000EDCF1000C7EEB00006EEB0101B1F5B8
:1057A000801F1BD3B1F5001F0CD349085FEA3000FE
:1057B0004FEA3C0C04F101044FEA445212F5800F09
:1057C00080F09A80BCF1004F08BF5FEA500C50F1A6
:1057D000000041EB045141EA050130BD5FEA4C0C89
:1057E000404141EB0101013C28BFB1F5801FE9D2E6
:1057F00091F0000F04BF01460020B1FA81F308BF09
:105800002033A3F10B03B3F120020CDA0C3208DDD4
:1058100002F1140CC2F10C0201FA0CF021FA02F1AF
:105820000CE002F11402D8BFC2F1200C01FA02F11F
:1058300020FA0CFCDCBF41EA0C019040E41AA2BF44
:1058400001EB0451294330BD6FEA04041F3C1CDA0C
:105850000C340EDC04F11404C4F1200220FA04F02C
:1058600001FA02F340EA030021FA04F345EA0301D6
:1058700030BDC4F10C04C4F1200220FA02F001FA98
:1058800004F340EA0300294630BD21FA04F029461A
:1058900030BD94F0000F83F4801306BF81F48011B3
:1058A0000134013D4EE77FEA645C18BF7FEA655C26
:1058B00029D094EA050F08BF90EA020F05D054EAF8
:1058C000000C04BF1946104630BD91EA030F1EBFFD
:1058D0000021002030BD5FEA545C05D14000494101
:1058E00028BF41F0004130BD14F580043CBF01F5F4
:1058F000801130BD01F0004545F0FE4141F47001DA
:105900004FF0000030BD7FEA645C1ABF19461046B4
:105910007FEA655C1CBF0B46024650EA013406BFB5
:1059200052EA033591EA030F41F4002130BD00BF74
:1059300090F0000F04BF0021704730B54FF4806431
:1059400004F132044FF000054FF0000150E700BFB2
:1059500090F0000F04BF0021704730B54FF4806411
:1059600004F1320410F0004548BF40424FF00001FE
:105970003EE700BF42004FEAE2014FEA31014FEA41
:1059800002701FBF12F07F4393F07F4F81F0605190
:10599000704732F07F4208BF704793F07F4F04BFDB
:1059A00041F40021704730B54FF4607401F00045B8
:1059B00021F000411CE700BF50EA010208BF704718
:1059C00030B54FF000050AE050EA010208BF704709
:1059D00030B511F0004502D5404261EB41014FF472
:1059E000806404F132045FEA915C3FF4D8AE4FF07A
:1059F00003025FEADC0C18BF03325FEADC0C18BF5D
:105A0000033202EBDC02C2F1200300FA03FC20FAAD
:105A100002F001FA03FE40EA0E0021FA02F11444FA
:105A2000BDE600BF70B54FF0FF0C4CF4E06C1CEA13
:105A300011541DBF1CEA135594EA0C0F95EA0C0F84
:105A400000F0DEF82C4481EA030621EA4C5123EAF7
:105A50004C5350EA013518BF52EA033541F4801126
:105A600043F4801338D0A0FB02CE4FF00005E1FBD9
:105A700002E506F00042E0FB03E54FF00006E1FB23
:105A800003569CF0000F18BF4EF0010EA4F1FF0466
:105A9000B6F5007F64F5407404D25FEA4E0E6D41A6
:105AA00046EB060642EAC62141EA55514FEAC520B7
:105AB00040EA5E504FEACE2EB4F1FD0C88BFBCF533
:105AC000E06F1ED8BEF1004F08BF5FEA500E50F1E4
:105AD000000041EB045170BD06F0004646EA0101AA
:105AE00040EA020081EA0301B4EB5C04C2BFD4EBDC
:105AF0000C0541EA045170BD41F480114FF0000ED5
:105B0000013C00F3AB8014F1360FDEBF002001F042
:105B1000004170BDC4F10004203C35DA0C341BDCBC
:105B200004F11404C4F1200500FA05F320FA04F08E
:105B300001FA05F240EA020001F0004221F00041C2
:105B400010EBD37021FA04F642EB06015EEA430E35
:105B500008BF20EAD37070BDC4F10C04C4F1200565
:105B600000FA04F320FA05F001FA04F240EA020018
:105B700001F0004110EBD37041F100015EEA430EE9
:105B800008BF20EAD37070BDC4F1200500FA05F209
:105B90004EEA020E20FA04F301FA05F243EA020388
:105BA00021FA04F001F0004121FA04F220EA020097
:105BB00000EBD3705EEA430E08BF20EAD37070BDDD
:105BC00094F0000F0FD101F00046400041EB0101BD
:105BD00011F4801F08BF013CF7D041EA060195F09F
:105BE000000F18BF704703F00046520043EB030359
:105BF00013F4801F08BF013DF7D043EA0603704746
:105C000094EA0C0F0CEA135518BF95EA0C0F0CD050
:105C100050EA410618BF52EA4306D1D181EA030196
:105C200001F000414FF0000070BD50EA410606BF90
:105C30001046194652EA430619D094EA0C0F02D1D5
:105C400050EA013613D195EA0C0F05D152EA03361A
:105C50001CBF104619460AD181EA030101F0004138
:105C600041F0FE4141F470014FF0000070BD41F081
:105C7000FE4141F4780170BD70B54FF0FF0C4CF45B
:105C8000E06C1CEA11541DBF1CEA135594EA0C0F7A
:105C900095EA0C0F00F0A7F8A4EB050481EA030EC7
:105CA00052EA03354FEA013100F088804FEA0333AE
:105CB0004FF0805545EA131343EA12634FEA02227C
:105CC00045EA111545EA10654FEA00260EF000413D
:105CD0009D4208BF964244F1FD0404F5407402D28F
:105CE0005B084FEA3202B61A65EB03055B084FEA20
:105CF00032024FF480104FF4002CB6EB020E75EB1D
:105D0000030E22BFB61A754640EA0C005B084FEA44
:105D10003202B6EB020E75EB030E22BFB61A7546C1
:105D200040EA5C005B084FEA3202B6EB020E75EB0C
:105D3000030E22BFB61A754640EA9C005B084FEA84
:105D40003202B6EB020E75EB030E22BFB61A754691
:105D500040EADC0055EA060E18D04FEA051545EA80
:105D600016754FEA06164FEAC30343EA52734FEA29
:105D7000C2025FEA1C1CC0D111F4801F0BD141EAA2
:105D800000014FF000004FF0004CB6E711F4801F07
:105D900004BF01430020B4F1FD0C88BFBCF5E06FE7
:105DA0003FF6AFAEB5EB030C04BFB6EB020C5FEAF7
:105DB000500C50F1000041EB045170BD0EF0004E4C
:105DC0004EEA113114EB5C04C2BFD4EB0C0541EA7E
:105DD000045170BD41F480114FF0000E013C90E67B
:105DE00045EA060E8DE60CEA135594EA0C0F08BF3F
:105DF00095EA0C0F3FF43BAF94EA0C0F0AD150EA3E
:105E000001347FF434AF95EA0C0F7FF425AF1046D0
:105E100019462CE795EA0C0F06D152EA03353FF4F8
:105E2000FDAE1046194622E750EA410618BF52EA75
:105E300043067FF4C5AE50EA41047FF40DAF52EA49
:105E400043057FF4EBAE12E74FEA4102B2F1E043C3
:105E500024BFB3F5001CDCF1FE5C0DD901F0004C51
:105E60004FEAC0024CEA5070B2F1004F40EB8300A1
:105E700008BF20F00100704711F0804F21D113F1CD
:105E80003872BCBF01F00040704741F480114FEA06
:105E90005252C2F11802C2F1200C10FA0CF320FA8F
:105EA00002F018BF40F001004FEAC1234FEAD323AC
:105EB00003FA0CFC40EA0C0023FA02F34FEA430316
:105EC000CCE77FEA625307D150EA01331EBF4FF09F
:105ED000FE4040F44000704701F0004040F0FE40BA
:105EE00040F40000704700BF10B5054C13462CB1BC
:105EF0000A4601460220AFF3008010BD2046FCE7B1
:105F0000000000000A44914200F1FF3300D17047C5
:105F100010B511F8014B03F8014F9142F9D110BDB2
:105F200002440346934200D1704703F8011BF9E78E
:105F300038B5104B1D68AB6B0446B3B91820FEF79B
:105F40006DFE0246A86320B90B4B0C484221FEF7B8
:105F50007DFE0B490B4BC0E900130B4B83600B23F9
:105F6000838100210120C2E90401AB6B00221C6186
:105F70005A6138BD9CE503203D610B0054610B0064
:105F80000E33CDAB34126DE6ECDE0500034613F89C
:105F9000012B002AFBD1181A0138704721400B0051
:105FA0005D400B0085400B0089400B0000000000A5
:105FB00054656D706572617475726520252E326648
:105FC000204320252E3266204620000000000000DD
:105FD00000000000CB4C0B00C14C0B00B74C0B0079
:105FE000AD4C0B00A14C0B00954C0B0059540B0011
:105FF00061540B00894C0B00814C0B00774C0B005B
:106000006D4C0B0091540B006170700025592D25CB
:106010006D2D25645425483A254D3A2553257A009F
:1060200061736374696D650000000000000000008A
:1060300039500B0029500B002B500B0000000000C2
:10604000000000001D510B0085510B005B510B003F
:10605000854D0B004D510B001F510B002F510B00B4
:106060007F510B003F510B0019510B000000000045
:106070000000000031520B009D520B0075520B00C6
:10608000854D0B0045520B0061520B0053520B0023
:106090006F520B0033520B0037520B000000000010
:1060A000000000002D530B0077530B004F530B00E3
:1060B0002F530B0057530B005F530B0067530B001C
:1060C0006F530B000000000000000000FB530B00AA
:1060D000F1530B00E7530B00A9530B00914E0B003B
:1060E000DB530B0059540B0061540B00CF530B00D2
:1060F000C7530B00BD530B00B3530B0091540B005F
:10610000000000000000000019540B0023540B0095
:106110002D540B0037540B0041540B004D540B0011
:1061200059540B0061540B0069540B0075540B005B
:106130007D540B0087540B0091540B0000524545D1
:106140004E54206D616C6C6F63207375636365657D
:10615000646564002F6D6E742F776F726B7370615E
:1061600063652F776F726B73706163652F4743436D
:106170002D31302D706970656C696E652F6A656EA2
:106180006B696E732D4743432D31302D70697065F7
:106190006C696E652D34385F3230323031313234D3
:1061A0005F313630363138303634312F7372632FE9
:1061B0006E65776C69622F6E65776C69622F6C69AA
:1061C00062632F7374646C69622F72616E642E63F4
:1061D0000000000055410B00D54C0B00FD4C0B009E
:1061E0005D4D0B009D4E0B00AD4E0B00D54E0B00D0
:1061F00005540B0069550B00000000000000000072
:04620000000000009A
:1062040020600B00A0E50320000000000000000057
:10621400000000000000000000000000000000007A
:10622400000000000000000000000000000000006A
:10623400000000000000000000000000000000005A
:10624400000000000000000000000000000000004A
:10625400000000000000000000000000000000003A
:08626400000000000000000032
:10626C00FFFFFFFF00000102030405060708090AEF
:10627C000B0C0D0E0F101112131415161718191AEA
:08628C001B1C1D1E1F20280031
:0462940078563412F2
:04000003B0004020E9
:00000001FF
