:02000002B0004C
:1040000000400B00A8600B00000006000C00050239
:0840100004011F0C0000000078
:04401800AC5D0B0090
:1040200009480A49884208B505D0094A824202D0A7
:10403000121A01F06FFE0748074A0021121A01F018
:1040400077FE014808BD00BFB8E4032014600B00F0
:1040500024E5032024E50320F0E7032070B5074E94
:10406000074C00F0BFFDA41BA4080025A54200D109
:1040700070BD56F8043B98470135F7E7EC5F0B003D
:1040800010600B0000F01BB808B500F07FF9BDE828
:10409000084000F05FBD00F027BB00F02DBB0078AA
:1040A000B0FA80F04009704701230370704710B5E3
:1040B0000446006808B100F01FFB204610BD08B59B
:1040C00000F098FE4FF4165100F088FE00211320F6
:1040D00001F09EF8BDE808400021112001F098B8D9
:1040E000F8B58A00073222F0070200AFADEB020DEF
:1040F0004B1E6C460022D5B28D4202F1010204DA59
:1041000050F8256044F82560F5E70020984212DA5F
:1041100022460025A3EB000E75450ADA1668D2F890
:1041200004C0664505F1010501DDC2E900C604329F
:10413000F2E70130EAE7CA0706D503EBD3735B1059
:1041400054F82300BD46F8BD01EBD171491004EBD2
:10415000810354F8210053F8043C184400EBD0705C
:104160004010EFE7000000002DE9F0412DED028B3B
:10417000754D764C2B78BFF35B8F13F0010F09D18F
:104180002846FFF78CFF28B100F04AF92060284646
:10419000FFF78AFF00F044F92368C01A282812D9D3
:1041A00000F03EF920606A4C1120256801F041F8CA
:1041B000684B43F8250023681D2B03F101020ABF59
:1041C000002322602360644D644C2B78BFF35B8F27
:1041D00013F0010F09D12846FFF761FF28B100F065
:1041E0001FF920602846FFF75FFF00F019F92368E8
:1041F000C01AB0F5487F40F2928000F011F958499A
:1042000020600023534C57480B601F22013A05D011
:1042100054F8043B40F8043B0123F7E70BB11E239D
:104220000B601E214F48DFF86081FFF759FF07EE52
:10423000900AF8EEE77AB1EE047A67EE877A9FED9E
:104240004A7A4A4B87EE878A83ED008A484B186882
:1042500001F0B2F9474B002201F04EF832A3D3E946
:10426000002301F001FA444B002201F047F801F06D
:10427000F3FC07EE900AC8EE277A17EE900A01F0D9
:104280009BF92BA3D3E9002304460D4601F0ECF97A
:1042900022462B4601F0E8F922462B4601F0E4F9CC
:1042A00025A3D3E9002306460F462046294601F000
:1042B000DBF922462B4601F0D7F902460B46304681
:1042C000394601F019F81EA3D3E9002306460F462C
:1042D0002046294601F0C8F902460B4630463946C9
:1042E00001F00CF8254B002201F0BEF901F0B4FCFE
:1042F000C8F8000000F07EFD214900F0C9FA00F086
:1043000079FD98ED000A002100F0C6FB00F072FD77
:10431000BDEC028B1B49BDE8F04100F0CCBABDEC0E
:10432000028BBDE8F08100BF7B14AE47E17A943F79
:104330003D0AD7A370AD6040EC51B81E85FB6F40BD
:1043400085EB51B81ECB8A4038E5032040E50320B9
:10435000BCE5032044E5032034E503203CE50320CD
:104360003CE60320C0E5032000F07F4538E603204B
:10437000B8E40320000039400000F03F0000E03FB7
:10438000C05D0B00CE5D0B0040E60320FFF7ECBEE6
:1043900010B5084C0023C4E900330220A3F5803394
:1043A000A36000F01DF92046034A0449BDE810400F
:1043B00000F094BF28E5032024E50320AF400B0064
:1043C00008B5024B1B689B68019308BD6802030097
:1043D00008B5024B1B68DB68019308BD6802030047
:1043E00008B5024B1B685B68019308BD2C020300F3
:1043F00008B5024B1B689B68019308BD2C020300A3
:1044000008B5024B1B681B6B019308BD2C0203000F
:1044100008B5024B1B685B68019308BD18020300D6
:1044200008B5024B1B685B69019308BD18020300C5
:1044300008B5024B1B685B6C019308BD4802030082
:1044400008B5024B1B689B6C019308BD4802030032
:1044500008B5024B1B685B69019308BD6402030049
:1044600008B5024B1B681B68019308BD3C020300A2
:1044700008B5024B1B68DB68019308BD3C020300D2
:1044800008B5024B1B681B69019308BD3C02030081
:1044900008B5024B1B685B69019308BD3C02030031
:1044A00008B5024B1B689B69019308BD3C020300E1
:1044B00008B5024B1B68DB69019308BD3C02030091
:1044C00008B5024B1B681B6A019308BD3C02030040
:1044D00008B5024B1B689B6A019308BD3C020300B0
:1044E00008B5024B1B681B6A019308BD2802030034
:1044F00008B5024B1B685B6A019308BD28020300E4
:1045000008B5024B1B689B6A019308BD2802030093
:1045100008B5024B1B68DB6A019308BD2802030043
:1045200008B5024B1B681B6B019308BD28020300F2
:1045300008B5024B1B685B6B019308BD28020300A2
:1045400008B5024B1B681B6C019308BD28020300D1
:1045500008B5024B1B68DB69019308BD30020300FC
:1045600008B5024B1B681B6A019308BD30020300AB
:1045700008B5024B1B681B68019308BD4C02030081
:1045800008B5024B1B685B68019308BD4C02030031
:1045900008B5024B1B681B69019308BD4C02030060
:1045A00008B5024B1B685B69019308BD4C02030010
:1045B00008B5024B1B689B69019308BD4C020300C0
:1045C00008B5024B1B68DB69019308BD4C02030070
:1045D00008B5024B1B681B6A019308BD4C0203001F
:1045E00008B5024B1B685B68019308BD20020300FD
:1045F00008B5034B1B68D3F88830019308BD000051
:104600002002030008B5034B1B68D3F894300193D4
:1046100008BD00002002030008B5024B1B685B6860
:10462000019308BD4002030008B5024B1B689B685C
:10463000019308BD4002030008B5024B1B68DB680C
:10464000019308BD4002030008B5024B1B681B69BB
:10465000019308BD4002030008B5024B1B685B696B
:10466000019308BD4002030008B5024B1B689B691B
:10467000019308BD4002030008B5024B1B68DB69CB
:10468000019308BD4002030008B5024B1B681B6A7A
:10469000019308BD4002030008B5024B1B681B6B69
:1046A000019308BD4002030008B5024B1B685B6B19
:1046B000019308BD4002030008B5024B1B681B6C48
:1046C000019308BD4002030008B5024B1B685B6CF8
:1046D000019308BD4002030008B5024B1B68DB6B69
:1046E000019308BD4402030008B5024B1B681B6818
:1046F000019308BD1C02030008B5024B1B685B68F0
:10470000019308BD1C02030008B5024B1B681B6C1B
:10471000019308BD1C02030008B5024B1B685B6CCB
:10472000019308BD1C020300002240681146FFF7F8
:10473000ABBF002240681146FFF7B6BF40680022B9
:10474000FFF7AABF4068002281F00101FFF794BF84
:10475000002340681A461946FFF786BF00234068C9
:104760001A461946FFF778BF002240681146FFF746
:104770006BBF002240681146FFF756BF4068002219
:104780000221FFF759BF002340681A46FFF744BFD4
:10479000024B03225A60024A1A60704744E6032023
:1047A000DC5D0B0010B5044608462170FFF7D0FE13
:1047B00000236360204610BD10B5094B094C02224E
:1047C0001A600020084BA360C4E90000FFF708FF4F
:1047D0002046064A0649BDE8104000F07FBD00BFF4
:1047E00058E603204CE603200000FFFF24E50320E9
:1047F000AF400B0010B50446006808B1FFF720FE7B
:10480000204610BD10B58368044613B1032201464B
:104810009847204610BD000010B5064C00232046E6
:104820002360FFF705FE2046034A0449BDE8104017
:1048300000F054BD5CE6032024E50320F5470B009F
:10484000F8B506460D468F180024BD420CD03368DB
:1048500015F8011B9B6830469847031E01DB1C447A
:10486000F3E7002C08BF1C462046F8BD13B50446EC
:10487000084659B1019101F091FA23680199DB686A
:104880000246204602B0BDE81040184702B010BDF5
:1048900008B5FFF7EBFF08BD03689B68184738B5FC
:1048A0000D210546FFF7F8FF0A2104462846FFF7C9
:1048B000F3FF204438BD38B50546FFF7D7FF04465F
:1048C0002846FFF7ECFF204438BD30B58BB00023FD
:1048D000012A8DF8243098BF0A2209AC0D46B1FB9D
:1048E000F2F101FB125303F0FF03092B94BF3033A5
:1048F0003733DBB2AA4204F8013DEFD92146FFF776
:10490000B5FF0BB030BD00002DE9F74F55EC104B53
:1049100006460F4610EE102A10EE100A2B462946C6
:1049200001F03CF940B153493046FFF79FFF824602
:10493000504603B0BDE8F08F25F000494E4B4FF0D4
:10494000FF322046494601F029F948B94A4B4FF059
:10495000FF322046494601F003F908B94749E3E729
:10496000474B4FF060422046294601F00DF908B14F
:104970004449D9E7444B4FF060422046294601F0B4
:10498000E5F80028F4D1002200232046294601F052
:10499000DDF8D0B12D213046FFF77EFF05F1004351
:1049A00082461D463949DFF8EC904FF0000B00209D
:1049B0004FF000085FFA8BF39F4208D942464B46FE
:1049C00000F07CFF0BF1010BF4E78246EAE7224698
:1049D0002B4600F093FC0D46044601F01DF980467D
:1049E00000F0C8FD02460B462046294600F084FC34
:1049F0000A2204460D4630464146FFF766FF8244D0
:104A0000002F95D02249DFF88C903046FFF72EFF1B
:104A10004FF000088244002F8AD042464B46204681
:104A2000294600F021FE04460D4601F0CDF8B0F114
:104A3000000B1CDA2D213046FFF72EFFCBF10001D1
:104A400003460A2230460193FFF73FFF019B1844BB
:104A50008244584600F09EFD02460B4620462946F9
:104A600000F04AFC013F04460D46FFB2D3E7594629
:104A70000023E6E7105E0B00FFFFEF7F145E0B00E4
:104A8000FFFFEF41185E0B00FFFFEFC10000E03FAA
:104A90001C5E0B000000244038B5044610EE100ADE
:104AA000CDB200F089FD41EC100B29462046BDE84F
:104AB0003840FFF729BF002340681A461946FFF720
:104AC000CBBD0000014B024A1A60704760E603202C
:104AD0001E5E0B00024B1A68024B1A60704700BF43
:104AE000BCE4032064E6032010B50446FFF78AFE09
:104AF000204610BD0348044A04490023836000F0A7
:104B0000EDBB00BF68E6032024E50320E94A0B0063
:104B1000014B1860704700BFC0E4032008B50B4B81
:104B200043B100F067F903681B699847002801DD6D
:104B3000AFF30080064B43B100F0DAF903681B695C
:104B40009847002801DDAFF3008008BD0000000099
:104B50000000000008B5FFF7E1FFFFF761FC014B23
:104B6000186008BDD4E703200548064A064908B581
:104B7000121A01F0CFF8054B054A1A6008BD00BFB4
:104B800000F4032004F4032010600B0000F4032061
:104B90001E1C279A07B5002300931A466FF0770171
:104BA000FFF730FD03B05DF804FB000007B5438854
:104BB0000A2B08D0502B0BD1094B1B684BB103B00B
:104BC0005DF804EB1847FFF7E5FF03B05DF804FB61
:104BD000002300931A466FF07701FFF713FDF4E707
:104BE0007CE6032010B512480021FFF795FD114B1C
:104BF0001A68114B9A42114B0CBF012200221A7005
:104C000001D0FFF7B1FFFFF703FC044601F098F86D
:104C10000B4B13B12046AFF3008000210848FFF78B
:104C20005BFDBDE8104007480021FFF7E1BC00BF75
:104C3000114B0B0000F403201E1C279A78E603207A
:104C400000000000AD4B0B00704710B51821044662
:104C500000F049FB204610BDF0B5037D062B8DB05A
:104C60000E4600F104074FF0000412D000F10805D1
:104C700015F8011D0A223046FFF727FEAF42044413
:104C800019D0002CF4D02E213046FFF705FE044445
:104C9000EEE72F236A4639460A208DF80040FFF7D9
:104CA000D7FB684601F07AF833680246DB6869464C
:104CB00030469847044620460DB0F0BD10B5054B70
:104CC0000446112240F8043B002101F031F820464F
:104CD00010BD00BF485E0B000346074A10B543F8FD
:104CE000042B01F1100251F8044B43F8044B91429C
:104CF000F9D10A781A7010BD485E0B0010B59DF806
:104D0000084044EA032343EA024242EA01610423E1
:104D10004160037510BD000007B5064B0360CB78FA
:104D200000938B784A780978FFF7E8FF03B05DF8C5
:104D300004FB00BF485E0B0041747047704708B524
:104D40000021007CFFF734FC40EAE07008BD08B5A4
:104D50000121007CFFF72CFC40EAE07008BD08B59B
:104D6000007CFFF71DFC20EAE07008BD08B5007C60
:104D7000FFF70EFC20EAE07008BD13B50446007C86
:104D80000191FFF70DFC0028019901DC607C20B146
:104D9000207CFFF715FC20EAE07002B010BD007C1B
:104DA000FFF716BC10B51421044600F09CFA20460B
:104DB00010BD000010B54FF47A7304460846002178
:104DC000C4E90113044B236001232074637411466A
:104DD000FFF7CEFB204610BD5C5E0B00007C00227E
:104DE000FFF7CEBB10B514220446002100F0A0FF4F
:104DF000204610BD10B5104C88B003A8FFF7F2FF95
:104E00002178BFF35B8F11F0010111D12046019190
:104E1000FFF745F9019958B103AA0848FFF7CAFFFF
:104E20002046FFF741F9064A0649044800F056FAC1
:104E3000024808B010BD00BF80E6032084E60320CE
:104E400024E503203D4D0B0070474174704708B5C1
:104E5000007CFFF73DFB20EAE07008BD08B5007C50
:104E6000FFF70EFB20EAE07008BD08B5007CFFF7F5
:104E700017FB40EAE07008BD08B5007CFFF708FBAF
:104E800040EAE07008BD007CFFF712BB37B5457CF7
:104E900004462DB1207C03B0BDE83040FFF7E8BAEE
:104EA000007C0191FFF714FB00280199F2DC2846F1
:104EB00003B030BD10B51421044600F014FA2046AA
:104EC00010BD000010B54FF0000C04460846114616
:104ED0004FF47A72C4E901C2044A226001222074AC
:104EE00062741A46FFF7BCFA204610BD8C5E0B00B8
:104EF00013B50E4C2178BFF35B8F11F0010112D175
:104F000020460191FFF7CBF8019960B1084A094B9F
:104F10000948FFF7D7FF2046FFF7C6F8074A0849B8
:104F2000054800F0DBF9044802B010BD98E6032004
:104F30009CE6032020E70320A4E7032024E50320C8
:104F4000494E0B007047F8B5064615460C468F18BB
:104F5000BC4206D0336814F8011B9B683046984762
:104F6000F6E72846F8BD007C0022FFF7B9BA007CBE
:104F70000021FFF7BDBA007C0021FFF7C1BA007C19
:104F80000021FFF7C5BA007C0021FFF7C9BA10B5B0
:104F90001421044600F0A7F9204610BD10B54FF4C7
:104FA0007A73044608460021C4E90113034B2360C9
:104FB00020741146FFF7C4FA204610BDBC5E0B00FA
:104FC000002240681146FFF73FBB002240681146AF
:104FD000FFF75ABB002240681146FFF765BB4068E7
:104FE0000022FFF759BB4068002281F00101FFF762
:104FF00043BB002340681A461946FFF735BB002221
:1050000040681146FFF710BB406800220221FFF7FD
:1050100013BB002340681A46FFF7FEBA024B042276
:105020005A60024A1A607047B8E70320E45E0B003A
:10503000002340681A46FFF7EFBA406800220221B9
:10504000FFF7FABA002240681146FFF7EDBA0022D6
:1050500040681146FFF7F8BA002340681A4619461F
:10506000FFF7FABA002340681A461946FFF7FCBA60
:1050700040680021FFF720BB40680021FFF724BBF8
:105080004068002281F00101FFF7F6BA4068002273
:10509000FFF702BB002240681146FFF705BB002264
:1050A00040681146FFF7F0BA2DE9F04395B0144679
:1050B0000D460746FFF702FE00211C220DA80091B5
:1050C00000F036FE40230C9320466B460CAA0021CC
:1050D000FFF77EF9044600284BD10246012168689B
:1050E000FFF7B2FA0221804622466868FFF7ACFA61
:1050F000009E81462146002E3BD0002939D173689D
:10510000022B03D00A2B11D0F669F4E7B8F1000F97
:10511000FAD0716906A8043107ADFFF7FDFD0FCD88
:105120003C1D0FC42B6823704146EDE7B9F1000F19
:10513000EAD07469102201A800F0FAFD06238DF868
:10514000143001AD04F108031834186859682A4670
:1051500003C20833A3421546F7D101A906A807AD3B
:10516000FFF7BAFD0FCD3C1D0FC42B6823704946D5
:10517000CAE70098FFF724F9384615B0BDE8F08378
:10518000024B034A1A6000225A607047C0E70320AE
:10519000205F0B00232813B502D9002002B010BDF8
:1051A000A0F10B03022B1AD8174C2178BFF35B8FA9
:1051B00011F001010BD120460191FEF770FF01991A
:1051C00028B11248FFF7EEFA2046FEF76DFF0F4BAD
:1051D0001878FFF7C5F90028DFD10120DEE70128A4
:1051E00009D800F053F80021007CFFF7A1F980F006
:1051F0000100C0B2D2E709380128EED8FFF778FEE7
:10520000007CFFF75DF9F2E7C8E70320CCE7032055
:10521000232838B504460D460AD8FF2908D0FFF7E1
:10522000B9FF28B129462046BDE83840FFF7E0B86D
:1052300038BD0D2810B504469CBF0E34A4B22046DC
:10524000FFF7A8FF50B103212046FFF7C9F8032854
:1052500004D12046BDE81040FFF7D2B8002010BDB1
:1052600038B520251423044603608560056106498E
:10527000284600F03AF804496060284600F035F806
:10528000E060204638BD00BF545F0B0030B50F4DC5
:105290002978BFF35B8F11F0010487B013D1284642
:1052A000FEF7FDFE78B101A8FFF7DAFF01AA21465B
:1052B0000748FFF773FE2846FEF7F6FE054A064943
:1052C000034800F00BF8024807B030BDD8E70320D0
:1052D000DCE7032024E50320454F0B000B46014685
:1052E000184600F009BDFEF7D8BEFEF7D4BE000098
:1052F00081F0004102E000BF83F0004330B54FEA87
:1053000041044FEA430594EA050F08BF90EA020FF3
:105310001FBF54EA000C55EA020C7FEA645C7FEA86
:10532000655C00F0E2804FEA5454D4EB5555B8BFA9
:105330006D420CDD2C4480EA020281EA030382EA1A
:10534000000083EA010180EA020281EA0303362DAC
:1053500088BF30BD11F0004F4FEA01314FF4801C7F
:105360004CEA113102D0404261EB410113F0004F91
:105370004FEA03334CEA133302D0524263EB430348
:1053800094EA050F00F0A780A4F10104D5F1200EE6
:105390000DDB02FA0EFC22FA05F2801841F1000141
:1053A00003FA0EF2801843FA05F359410EE0A5F115
:1053B00020050EF1200E012A03FA0EFC28BF4CF046
:1053C000020C43FA05F3C01851EBE37101F00045FC
:1053D00007D54FF0000EDCF1000C7EEB00006EEB09
:1053E0000101B1F5801F1BD3B1F5001F0CD3490893
:1053F0005FEA30004FEA3C0C04F101044FEA4452EA
:1054000012F5800F80F09A80BCF1004F08BF5FEA70
:10541000500C50F1000041EB045141EA050130BD50
:105420005FEA4C0C404141EB0101013C28BFB1F562
:10543000801FE9D291F0000F04BF01460020B1FAAD
:1054400081F308BF2033A3F10B03B3F120020CDA80
:105450000C3208DD02F1140CC2F10C0201FA0CF05E
:1054600021FA02F10CE002F11402D8BFC2F1200CC3
:1054700001FA02F120FA0CFCDCBF41EA0C01904079
:10548000E41AA2BF01EB0451294330BD6FEA0404C2
:105490001F3C1CDA0C340EDC04F11404C4F12002AD
:1054A00020FA04F001FA02F340EA030021FA04F3BF
:1054B00045EA030130BDC4F10C04C4F1200220FA16
:1054C00002F001FA04F340EA0300294630BD21FA54
:1054D00004F0294630BD94F0000F83F4801306BF1A
:1054E00081F480110134013D4EE77FEA645C18BF0E
:1054F0007FEA655C29D094EA050F08BF90EA020FA5
:1055000005D054EA000C04BF1946104630BD91EA9C
:10551000030F1EBF0021002030BD5FEA545C05D19F
:105520004000494128BF41F0004130BD14F58004DE
:105530003CBF01F5801130BD01F0004545F0FE4152
:1055400041F470014FF0000030BD7FEA645C1ABF87
:10555000194610467FEA655C1CBF0B46024650EABE
:10556000013406BF52EA033591EA030F41F40021EA
:1055700030BD00BF90F0000F04BF0021704730B570
:105580004FF4806404F132044FF000054FF0000145
:1055900050E700BF90F0000F04BF0021704730B506
:1055A0004FF4806404F1320410F0004548BF4042DB
:1055B0004FF000013EE700BF42004FEAE2014FEA30
:1055C00031014FEA02701FBF12F07F4393F07F4F0B
:1055D00081F06051704732F07F4208BF704793F00E
:1055E0007F4F04BF41F40021704730B54FF4607421
:1055F00001F0004521F000411CE700BF50EA010224
:1056000008BF704730B54FF000050AE050EA0102CC
:1056100008BF704730B511F0004502D5404261EB3C
:1056200041014FF4806404F132045FEA915C3FF47D
:10563000D8AE4FF003025FEADC0C18BF03325FEA1A
:10564000DC0C18BF033202EBDC02C2F1200300FACB
:1056500003FC20FA02F001FA03FE40EA0E0021FAF0
:1056600002F11444BDE600BF70B54FF0FF0C4CF4DE
:10567000E06C1CEA11541DBF1CEA135594EA0C0F90
:1056800095EA0C0F00F0DEF82C4481EA030621EACB
:105690004C5123EA4C5350EA013518BF52EA033506
:1056A00041F4801143F4801338D0A0FB02CE4FF0B8
:1056B0000005E1FB02E506F00042E0FB03E54FF0E8
:1056C0000006E1FB03569CF0000F18BF4EF0010EE0
:1056D000A4F1FF04B6F5007F64F5407404D25FEADC
:1056E0004E0E6D4146EB060642EAC62141EA55518F
:1056F0004FEAC52040EA5E504FEACE2EB4F1FD0CD1
:1057000088BFBCF5E06F1ED8BEF1004F08BF5FEA4E
:10571000500E50F1000041EB045170BD06F0004600
:1057200046EA010140EA020081EA0301B4EB5C04AD
:10573000C2BFD4EB0C0541EA045170BD41F48011A5
:105740004FF0000E013C00F3AB8014F1360FDEBFCA
:10575000002001F0004170BDC4F10004203C35DAA6
:105760000C341BDC04F11404C4F1200500FA05F329
:1057700020FA04F001FA05F240EA020001F00042CA
:1057800021F0004110EBD37021FA04F642EB060140
:105790005EEA430E08BF20EAD37070BDC4F10C046A
:1057A000C4F1200500FA04F320FA05F001FA04F22E
:1057B00040EA020001F0004110EBD37041F100011A
:1057C0005EEA430E08BF20EAD37070BDC4F1200525
:1057D00000FA05F24EEA020E20FA04F301FA05F28D
:1057E00043EA020321FA04F001F0004121FA04F235
:1057F00020EA020000EBD3705EEA430E08BF20EA05
:10580000D37070BD94F0000F0FD101F0004640003E
:1058100041EB010111F4801F08BF013CF7D041EAC0
:10582000060195F0000F18BF704703F000465200C4
:1058300043EB030313F4801F08BF013DF7D043EA95
:105840000603704794EA0C0F0CEA135518BF95EA4B
:105850000C0F0CD050EA410618BF52EA4306D1D1D2
:1058600081EA030101F000414FF0000070BD50EAF1
:10587000410606BF1046194652EA430619D094EA7B
:105880000C0F02D150EA013613D195EA0C0F05D165
:1058900052EA03361CBF104619460AD181EA0301B9
:1058A00001F0004141F0FE4141F470014FF0000071
:1058B00070BD41F0FE4141F4780170BD70B54FF00C
:1058C000FF0C4CF4E06C1CEA11541DBF1CEA13558C
:1058D00094EA0C0F95EA0C0F00F0A7F8A4EB05046E
:1058E00081EA030E52EA03354FEA013100F0888065
:1058F0004FEA03334FF0805545EA131343EA12632E
:105900004FEA022245EA111545EA10654FEA0026E2
:105910000EF000419D4208BF964244F1FD0404F59B
:10592000407402D25B084FEA3202B61A65EB0305F7
:105930005B084FEA32024FF480104FF4002CB6EBB4
:10594000020E75EB030E22BFB61A754640EA0C0034
:105950005B084FEA3202B6EB020E75EB030E22BF74
:10596000B61A754640EA5C005B084FEA3202B6EBB5
:10597000020E75EB030E22BFB61A754640EA9C0074
:105980005B084FEA3202B6EB020E75EB030E22BF44
:10599000B61A754640EADC0055EA060E18D04FEA02
:1059A000051545EA16754FEA06164FEAC30343EAA2
:1059B00052734FEAC2025FEA1C1CC0D111F4801F6F
:1059C0000BD141EA00014FF000004FF0004CB6E768
:1059D00011F4801F04BF01430020B4F1FD0C88BF07
:1059E000BCF5E06F3FF6AFAEB5EB030C04BFB6EB12
:1059F000020C5FEA500C50F1000041EB045170BD05
:105A00000EF0004E4EEA113114EB5C04C2BFD4EB31
:105A10000C0541EA045170BD41F480114FF0000EB5
:105A2000013C90E645EA060E8DE60CEA135594EA31
:105A30000C0F08BF95EA0C0F3FF43BAF94EA0C0F34
:105A40000AD150EA01347FF434AF95EA0C0F7FF4A9
:105A500025AF104619462CE795EA0C0F06D152EAFD
:105A600003353FF4FDAE1046194622E750EA4106E1
:105A700018BF52EA43067FF4C5AE50EA41047FF4F2
:105A80000DAF52EA43057FF4EBAE12E74FF0FF3C57
:105A900006E000BF4FF0010C02E000BF4FF0010C28
:105AA0004DF804CD4FEA410C7FEA6C5C4FEA430CA1
:105AB00018BF7FEA6C5C1BD001B050EA410C0CBFF0
:105AC00052EA430C91EA030F02BF90EA020F002052
:105AD000704710F1000F91EA030F58BF994208BFB9
:105AE00090422CBFD8176FEAE37040F00100704776
:105AF0004FEA410C7FEA6C5C02D150EA013C07D1CD
:105B00004FEA430C7FEA6C5CD6D152EA033CD3D017
:105B10005DF8040B704700BF8446104662468C4611
:105B20001946634600E000BF01B5FFF7B7FF002844
:105B300048BF10F1000F01BD4DF808EDFFF7F4FF6D
:105B40000CBF012000205DF808FB00BF4DF808EDF8
:105B5000FFF7EAFF34BF012000205DF808FB00BF1B
:105B60004DF808EDFFF7E0FF94BF012000205DF83D
:105B700008FB00BF4DF808EDFFF7CEFF94BF0120F2
:105B800000205DF808FB00BF4DF808EDFFF7C4FFEB
:105B900034BF012000205DF808FB00BF4FEA410C34
:105BA0007FEA6C5C02D150EA013C0AD14FEA430C17
:105BB0007FEA6C5C02D152EA033C02D14FF0000054
:105BC00070474FF0010070474FEA410212F5001292
:105BD00015D211D56FF47873B3EB625212D94FEA34
:105BE000C12343F0004343EA505311F0004F23FA1E
:105BF00002F018BF404270474FF00000704750EA73
:105C0000013005D111F0004008BF6FF0004070472F
:105C10004FF00000704700BF4A0011D212F5001289
:105C200011D20DD56FF47873B3EB62520ED44FEAF4
:105C3000C12343F0004343EA505323FA02F0704774
:105C40004FF00000704750EA013002D14FF0FF30B2
:105C500070474FF0000070474FEA4102B2F1E04355
:105C600024BFB3F5001CDCF1FE5C0DD901F0004C43
:105C70004FEAC0024CEA5070B2F1004F40EB830093
:105C800008BF20F00100704711F0804F21D113F1BF
:105C90003872BCBF01F00040704741F480114FEAF8
:105CA0005252C2F11802C2F1200C10FA0CF320FA81
:105CB00002F018BF40F001004FEAC1234FEAD3239E
:105CC00003FA0CFC40EA0C0023FA02F34FEA430308
:105CD000CCE77FEA625307D150EA01331EBF4FF091
:105CE000FE4040F44000704701F0004040F0FE40AC
:105CF00040F40000704700BF10B5054C13462CB1AE
:105D00000A4601460220AFF3008010BD2046FCE7A2
:105D1000000000000A44914200F1FF3300D17047B7
:105D200010B511F8014B03F8014F9142F9D110BDA4
:105D300002440346934200D1704703F8011BF9E780
:105D400038B5104B1D68AB6B0446B3B91820FEF78D
:105D5000CBFC0246A86320B90B4B0C484221FEF74E
:105D6000D3FC0B490B4BC0E900130B4B83600B2397
:105D7000838100210120C2E90401AB6B00221C6178
:105D80005A6138BDC0E40320555F0B006C5F0B0007
:105D90000E33CDAB34126DE6ECDE0500034613F88E
:105DA000012B002AFBD1181A0138704721400B0043
:105DB0005D400B0085400B0089400B000000000097
:105DC0005444532D2D2D2D56616C75653A0070701D
:105DD0006D000000000000000000000087470B007D
:105DE0007D470B0073470B0069470B005D470B00B5
:105DF00051470B0071500B0079500B0045470B00C9
:105E00003D470B0033470B0029470B00A9500B00FF
:105E10006E616E00696E66006F7666002E006170BE
:105E2000700025592D256D2D25645425483A254DA2
:105E30003A2553257A0061736374696D650000002B
:105E40000000000000000000594C0B00494C0B0002
:105E50004B4C0B0000000000000000003D4D0B000B
:105E6000A54D0B007B4D0B0041480B006D4D0B0009
:105E70003F4D0B004F4D0B009F4D0B005F4D0B0036
:105E8000394D0B000000000000000000494E0B00DF
:105E9000B54E0B008D4E0B0041480B005D4E0B00C4
:105EA000794E0B006B4E0B00874E0B004B4E0B00D8
:105EB0004F4E0B000000000000000000454F0B009B
:105EC0008F4F0B00674F0B00474F0B006F4F0B00BE
:105ED000774F0B007F4F0B00874F0B000000000037
:105EE0000000000013500B0009500B00FF4F0B0087
:105EF000C14F0B00B74A0B00F34F0B0071500B0062
:105F000079500B00E74F0B00DF4F0B00D54F0B0014
:105F1000CB4F0B00A9500B00000000000000000058
:105F200031500B003B500B0045500B004F500B0005
:105F300059500B0065500B0071500B0079500B004D
:105F400081500B008D500B0095500B009F500B00A3
:105F5000A9500B00005245454E54206D616C6C6F8A
:105F60006320737563636565646564002F6D6E748B
:105F70002F776F726B73706163652F776F726B73BE
:105F8000706163652F4743432D31302D7069706513
:105F90006C696E652F6A656E6B696E732D4743433E
:105FA0002D31302D706970656C696E652D34385FE8
:105FB00032303230313132345F3136303631383090
:105FC0003634312F7372632F6E65776C69622F6E72
:105FD00065776C69622F6C6962632F7374646C6996
:105FE000622F72616E642E630000000091430B000B
:105FF00091470B00B9470B0019480B00C54A0B002D
:10600000D54A0B00F54A0B001D500B0081510B00C7
:04601000000000008C
:106014000000C841365E0B00C4E403200000000009
:10602400000000000000000000000000000000006C
:10603400000000000000000000000000000000005C
:10604400000000000000000000000000000000004C
:10605400000000000000000000000000000000003C
:10606400000000000000000000000000000000002C
:0C60740000000000000000000000000020
:10608000FFFFFFFF00000102030405060708090ADD
:106090000B0C0D0E0F101112131415161718191AD8
:0860A0001B1C1D1E1F2028001F
:0460A80078563412E0
:04000003B0004020E9
:00000001FF
